{
  "_format": "hh-sol-artifact-1",
  "contractName": "AgentFactory",
  "sourceName": "contracts/persona/AgentFactory.sol",
  "abi": [
    {
      "inputs": [],
      "stateMutability": "nonpayable",
      "type": "constructor"
    },
    {
      "inputs": [],
      "name": "AccessControlBadConfirmation",
      "type": "error"
    },
    {
      "inputs": [
        {
          "internalType": "address",
          "name": "account",
          "type": "address"
        },
        {
          "internalType": "bytes32",
          "name": "neededRole",
          "type": "bytes32"
        }
      ],
      "name": "AccessControlUnauthorizedAccount",
      "type": "error"
    },
    {
      "inputs": [],
      "name": "EnforcedPause",
      "type": "error"
    },
    {
      "inputs": [],
      "name": "ExpectedPause",
      "type": "error"
    },
    {
      "inputs": [],
      "name": "FailedDeployment",
      "type": "error"
    },
    {
      "inputs": [
        {
          "internalType": "uint256",
          "name": "balance",
          "type": "uint256"
        },
        {
          "internalType": "uint256",
          "name": "needed",
          "type": "uint256"
        }
      ],
      "name": "InsufficientBalance",
      "type": "error"
    },
    {
      "inputs": [],
      "name": "InvalidInitialization",
      "type": "error"
    },
    {
      "inputs": [],
      "name": "NotInitializing",
      "type": "error"
    },
    {
      "inputs": [
        {
          "internalType": "address",
          "name": "token",
          "type": "address"
        }
      ],
      "name": "SafeERC20FailedOperation",
      "type": "error"
    },
    {
      "anonymous": false,
      "inputs": [
        {
          "indexed": false,
          "internalType": "uint256",
          "name": "newThreshold",
          "type": "uint256"
        }
      ],
      "name": "ApplicationThresholdUpdated",
      "type": "event"
    },
    {
      "anonymous": false,
      "inputs": [
        {
          "indexed": false,
          "internalType": "address",
          "name": "newGov",
          "type": "address"
        }
      ],
      "name": "GovUpdated",
      "type": "event"
    },
    {
      "anonymous": false,
      "inputs": [
        {
          "indexed": false,
          "internalType": "address",
          "name": "token",
          "type": "address"
        },
        {
          "indexed": false,
          "internalType": "address",
          "name": "dao",
          "type": "address"
        }
      ],
      "name": "ImplContractsUpdated",
      "type": "event"
    },
    {
      "anonymous": false,
      "inputs": [
        {
          "indexed": false,
          "internalType": "uint64",
          "name": "version",
          "type": "uint64"
        }
      ],
      "name": "Initialized",
      "type": "event"
    },
    {
      "anonymous": false,
      "inputs": [
        {
          "indexed": false,
          "internalType": "uint256",
          "name": "id",
          "type": "uint256"
        }
      ],
      "name": "NewApplication",
      "type": "event"
    },
    {
      "anonymous": false,
      "inputs": [
        {
          "indexed": false,
          "internalType": "address",
          "name": "token",
          "type": "address"
        },
        {
          "indexed": false,
          "internalType": "address",
          "name": "lp",
          "type": "address"
        }
      ],
      "name": "NewPersona",
      "type": "event"
    },
    {
      "anonymous": false,
      "inputs": [
        {
          "indexed": false,
          "internalType": "address",
          "name": "account",
          "type": "address"
        }
      ],
      "name": "Paused",
      "type": "event"
    },
    {
      "anonymous": false,
      "inputs": [
        {
          "indexed": true,
          "internalType": "bytes32",
          "name": "role",
          "type": "bytes32"
        },
        {
          "indexed": true,
          "internalType": "bytes32",
          "name": "previousAdminRole",
          "type": "bytes32"
        },
        {
          "indexed": true,
          "internalType": "bytes32",
          "name": "newAdminRole",
          "type": "bytes32"
        }
      ],
      "name": "RoleAdminChanged",
      "type": "event"
    },
    {
      "anonymous": false,
      "inputs": [
        {
          "indexed": true,
          "internalType": "bytes32",
          "name": "role",
          "type": "bytes32"
        },
        {
          "indexed": true,
          "internalType": "address",
          "name": "account",
          "type": "address"
        },
        {
          "indexed": true,
          "internalType": "address",
          "name": "sender",
          "type": "address"
        }
      ],
      "name": "RoleGranted",
      "type": "event"
    },
    {
      "anonymous": false,
      "inputs": [
        {
          "indexed": true,
          "internalType": "bytes32",
          "name": "role",
          "type": "bytes32"
        },
        {
          "indexed": true,
          "internalType": "address",
          "name": "account",
          "type": "address"
        },
        {
          "indexed": true,
          "internalType": "address",
          "name": "sender",
          "type": "address"
        }
      ],
      "name": "RoleRevoked",
      "type": "event"
    },
    {
      "anonymous": false,
      "inputs": [
        {
          "indexed": false,
          "internalType": "address",
          "name": "account",
          "type": "address"
        }
      ],
      "name": "Unpaused",
      "type": "event"
    },
    {
      "inputs": [],
      "name": "BONDING_ROLE",
      "outputs": [
        {
          "internalType": "bytes32",
          "name": "",
          "type": "bytes32"
        }
      ],
      "stateMutability": "view",
      "type": "function"
    },
    {
      "inputs": [],
      "name": "DEFAULT_ADMIN_ROLE",
      "outputs": [
        {
          "internalType": "bytes32",
          "name": "",
          "type": "bytes32"
        }
      ],
      "stateMutability": "view",
      "type": "function"
    },
    {
      "inputs": [],
      "name": "WITHDRAW_ROLE",
      "outputs": [
        {
          "internalType": "bytes32",
          "name": "",
          "type": "bytes32"
        }
      ],
      "stateMutability": "view",
      "type": "function"
    },
    {
      "inputs": [
        {
          "internalType": "uint256",
          "name": "",
          "type": "uint256"
        }
      ],
      "name": "allTokens",
      "outputs": [
        {
          "internalType": "address",
          "name": "",
          "type": "address"
        }
      ],
      "stateMutability": "view",
      "type": "function"
    },
    {
      "inputs": [
        {
          "internalType": "uint256",
          "name": "",
          "type": "uint256"
        }
      ],
      "name": "allTradingTokens",
      "outputs": [
        {
          "internalType": "address",
          "name": "",
          "type": "address"
        }
      ],
      "stateMutability": "view",
      "type": "function"
    },
    {
      "inputs": [],
      "name": "applicationThreshold",
      "outputs": [
        {
          "internalType": "uint256",
          "name": "",
          "type": "uint256"
        }
      ],
      "stateMutability": "view",
      "type": "function"
    },
    {
      "inputs": [],
      "name": "assetToken",
      "outputs": [
        {
          "internalType": "address",
          "name": "",
          "type": "address"
        }
      ],
      "stateMutability": "view",
      "type": "function"
    },
    {
      "inputs": [],
      "name": "defaultDelegatee",
      "outputs": [
        {
          "internalType": "address",
          "name": "",
          "type": "address"
        }
      ],
      "stateMutability": "view",
      "type": "function"
    },
    {
      "inputs": [
        {
          "internalType": "uint256",
          "name": "id",
          "type": "uint256"
        }
      ],
      "name": "executeApplication",
      "outputs": [],
      "stateMutability": "nonpayable",
      "type": "function"
    },
    {
      "inputs": [
        {
          "internalType": "uint256",
          "name": "id",
          "type": "uint256"
        }
      ],
      "name": "executeBondingCurveApplication",
      "outputs": [
        {
          "internalType": "address",
          "name": "",
          "type": "address"
        }
      ],
      "stateMutability": "nonpayable",
      "type": "function"
    },
    {
      "inputs": [
        {
          "internalType": "uint256",
          "name": "proposalId",
          "type": "uint256"
        }
      ],
      "name": "getApplication",
      "outputs": [
        {
          "components": [
            {
              "internalType": "string",
              "name": "name",
              "type": "string"
            },
            {
              "internalType": "string",
              "name": "symbol",
              "type": "string"
            },
            {
              "internalType": "string",
              "name": "tokenURI",
              "type": "string"
            },
            {
              "internalType": "enum AgentFactory.ApplicationStatus",
              "name": "status",
              "type": "uint8"
            },
            {
              "internalType": "uint256",
              "name": "withdrawableAmount",
              "type": "uint256"
            },
            {
              "internalType": "address",
              "name": "proposer",
              "type": "address"
            },
            {
              "internalType": "uint8[]",
              "name": "cores",
              "type": "uint8[]"
            },
            {
              "internalType": "uint256",
              "name": "proposalEndBlock",
              "type": "uint256"
            }
          ],
          "internalType": "struct AgentFactory.Application",
          "name": "",
          "type": "tuple"
        }
      ],
      "stateMutability": "view",
      "type": "function"
    },
    {
      "inputs": [
        {
          "internalType": "bytes32",
          "name": "role",
          "type": "bytes32"
        }
      ],
      "name": "getRoleAdmin",
      "outputs": [
        {
          "internalType": "bytes32",
          "name": "",
          "type": "bytes32"
        }
      ],
      "stateMutability": "view",
      "type": "function"
    },
    {
      "inputs": [],
      "name": "getTokenSupplyParams",
      "outputs": [
        {
          "internalType": "bytes",
          "name": "",
          "type": "bytes"
        }
      ],
      "stateMutability": "view",
      "type": "function"
    },
    {
      "inputs": [],
      "name": "getTokenTaxParams",
      "outputs": [
        {
          "internalType": "bytes",
          "name": "",
          "type": "bytes"
        }
      ],
      "stateMutability": "view",
      "type": "function"
    },
    {
      "inputs": [],
      "name": "gov",
      "outputs": [
        {
          "internalType": "address",
          "name": "",
          "type": "address"
        }
      ],
      "stateMutability": "view",
      "type": "function"
    },
    {
      "inputs": [
        {
          "internalType": "bytes32",
          "name": "role",
          "type": "bytes32"
        },
        {
          "internalType": "address",
          "name": "account",
          "type": "address"
        }
      ],
      "name": "grantRole",
      "outputs": [],
      "stateMutability": "nonpayable",
      "type": "function"
    },
    {
      "inputs": [
        {
          "internalType": "bytes32",
          "name": "role",
          "type": "bytes32"
        },
        {
          "internalType": "address",
          "name": "account",
          "type": "address"
        }
      ],
      "name": "hasRole",
      "outputs": [
        {
          "internalType": "bool",
          "name": "",
          "type": "bool"
        }
      ],
      "stateMutability": "view",
      "type": "function"
    },
    {
      "inputs": [
        {
          "internalType": "string",
          "name": "name",
          "type": "string"
        },
        {
          "internalType": "string",
          "name": "symbol",
          "type": "string"
        },
        {
          "internalType": "uint8[]",
          "name": "cores",
          "type": "uint8[]"
        },
        {
          "internalType": "uint256",
          "name": "applicationThreshold_",
          "type": "uint256"
        },
        {
          "internalType": "address",
          "name": "creator",
          "type": "address"
        }
      ],
      "name": "initFromBondingCurve",
      "outputs": [
        {
          "internalType": "uint256",
          "name": "",
          "type": "uint256"
        }
      ],
      "stateMutability": "nonpayable",
      "type": "function"
    },
    {
      "inputs": [
        {
          "internalType": "address",
          "name": "tokenImplementation_",
          "type": "address"
        },
        {
          "internalType": "address",
          "name": "assetToken_",
          "type": "address"
        },
        {
          "internalType": "uint256",
          "name": "applicationThreshold_",
          "type": "uint256"
        },
        {
          "internalType": "uint256",
          "name": "nextId_",
          "type": "uint256"
        },
        {
          "internalType": "address",
          "name": "tokenAdmin_",
          "type": "address"
        },
        {
          "internalType": "address",
          "name": "nonfungiblePositionManager_",
          "type": "address"
        },
        {
          "internalType": "address",
          "name": "swapRouter_",
          "type": "address"
        }
      ],
      "name": "initialize",
      "outputs": [],
      "stateMutability": "nonpayable",
      "type": "function"
    },
    {
      "inputs": [],
      "name": "maturityDuration",
      "outputs": [
        {
          "internalType": "uint256",
          "name": "",
          "type": "uint256"
        }
      ],
      "stateMutability": "view",
      "type": "function"
    },
    {
      "inputs": [],
      "name": "pause",
      "outputs": [],
      "stateMutability": "nonpayable",
      "type": "function"
    },
    {
      "inputs": [],
      "name": "paused",
      "outputs": [
        {
          "internalType": "bool",
          "name": "",
          "type": "bool"
        }
      ],
      "stateMutability": "view",
      "type": "function"
    },
    {
      "inputs": [
        {
          "internalType": "string",
          "name": "name",
          "type": "string"
        },
        {
          "internalType": "string",
          "name": "symbol",
          "type": "string"
        },
        {
          "internalType": "string",
          "name": "tokenURI",
          "type": "string"
        },
        {
          "internalType": "uint8[]",
          "name": "cores",
          "type": "uint8[]"
        }
      ],
      "name": "proposeAgent",
      "outputs": [
        {
          "internalType": "uint256",
          "name": "",
          "type": "uint256"
        }
      ],
      "stateMutability": "nonpayable",
      "type": "function"
    },
    {
      "inputs": [
        {
          "internalType": "bytes32",
          "name": "role",
          "type": "bytes32"
        },
        {
          "internalType": "address",
          "name": "callerConfirmation",
          "type": "address"
        }
      ],
      "name": "renounceRole",
      "outputs": [],
      "stateMutability": "nonpayable",
      "type": "function"
    },
    {
      "inputs": [
        {
          "internalType": "bytes32",
          "name": "role",
          "type": "bytes32"
        },
        {
          "internalType": "address",
          "name": "account",
          "type": "address"
        }
      ],
      "name": "revokeRole",
      "outputs": [],
      "stateMutability": "nonpayable",
      "type": "function"
    },
    {
      "inputs": [
        {
          "internalType": "uint256",
          "name": "newThreshold",
          "type": "uint256"
        }
      ],
      "name": "setApplicationThreshold",
      "outputs": [],
      "stateMutability": "nonpayable",
      "type": "function"
    },
    {
      "inputs": [
        {
          "internalType": "address",
          "name": "newToken",
          "type": "address"
        }
      ],
      "name": "setAssetToken",
      "outputs": [],
      "stateMutability": "nonpayable",
      "type": "function"
    },
    {
      "inputs": [
        {
          "internalType": "address",
          "name": "newDelegatee",
          "type": "address"
        }
      ],
      "name": "setDefaultDelegatee",
      "outputs": [],
      "stateMutability": "nonpayable",
      "type": "function"
    },
    {
      "inputs": [
        {
          "internalType": "address",
          "name": "token",
          "type": "address"
        }
      ],
      "name": "setImplementations",
      "outputs": [],
      "stateMutability": "nonpayable",
      "type": "function"
    },
    {
      "inputs": [
        {
          "internalType": "uint256",
          "name": "newDuration",
          "type": "uint256"
        }
      ],
      "name": "setMaturityDuration",
      "outputs": [],
      "stateMutability": "nonpayable",
      "type": "function"
    },
    {
      "inputs": [
        {
          "internalType": "address",
          "name": "newTokenAdmin",
          "type": "address"
        }
      ],
      "name": "setTokenAdmin",
      "outputs": [],
      "stateMutability": "nonpayable",
      "type": "function"
    },
    {
      "inputs": [
        {
          "internalType": "uint256",
          "name": "maxSupply",
          "type": "uint256"
        },
        {
          "internalType": "uint256",
          "name": "lpSupply",
          "type": "uint256"
        },
        {
          "internalType": "uint256",
          "name": "vaultSupply",
          "type": "uint256"
        },
        {
          "internalType": "uint256",
          "name": "maxTokensPerWallet",
          "type": "uint256"
        },
        {
          "internalType": "uint256",
          "name": "maxTokensPerTxn",
          "type": "uint256"
        },
        {
          "internalType": "uint256",
          "name": "botProtectionDurationInSeconds",
          "type": "uint256"
        },
        {
          "internalType": "address",
          "name": "vault",
          "type": "address"
        }
      ],
      "name": "setTokenSupplyParams",
      "outputs": [],
      "stateMutability": "nonpayable",
      "type": "function"
    },
    {
      "inputs": [
        {
          "internalType": "uint256",
          "name": "projectBuyTaxBasisPoints",
          "type": "uint256"
        },
        {
          "internalType": "uint256",
          "name": "projectSellTaxBasisPoints",
          "type": "uint256"
        },
        {
          "internalType": "uint256",
          "name": "taxSwapThresholdBasisPoints",
          "type": "uint256"
        },
        {
          "internalType": "address",
          "name": "projectTaxRecipient",
          "type": "address"
        }
      ],
      "name": "setTokenTaxParams",
      "outputs": [],
      "stateMutability": "nonpayable",
      "type": "function"
    },
    {
      "inputs": [
        {
          "internalType": "bytes4",
          "name": "interfaceId",
          "type": "bytes4"
        }
      ],
      "name": "supportsInterface",
      "outputs": [
        {
          "internalType": "bool",
          "name": "",
          "type": "bool"
        }
      ],
      "stateMutability": "view",
      "type": "function"
    },
    {
      "inputs": [],
      "name": "tokenImplementation",
      "outputs": [
        {
          "internalType": "address",
          "name": "",
          "type": "address"
        }
      ],
      "stateMutability": "view",
      "type": "function"
    },
    {
      "inputs": [],
      "name": "totalAgents",
      "outputs": [
        {
          "internalType": "uint256",
          "name": "",
          "type": "uint256"
        }
      ],
      "stateMutability": "view",
      "type": "function"
    },
    {
      "inputs": [],
      "name": "unpause",
      "outputs": [],
      "stateMutability": "nonpayable",
      "type": "function"
    },
    {
      "inputs": [
        {
          "internalType": "uint256",
          "name": "id",
          "type": "uint256"
        }
      ],
      "name": "withdraw",
      "outputs": [],
      "stateMutability": "nonpayable",
      "type": "function"
    }
  ],
  "bytecode": "0x6080806040523460d2577ff0c57e16840df040f15088dc2f81fe391c3923bec73e23a9662efc9c229c6a005460ff8160401c1660c1576002600160401b03196001600160401b03821601605c575b6040516134bf90816100d88239f35b6001600160401b0319166001600160401b039081177ff0c57e16840df040f15088dc2f81fe391c3923bec73e23a9662efc9c229c6a005581527fc7f505b2f371ae2175ee4913f4499e1f2633a7b5936321eed1cdaeb6115181d290602090a13880604d565b63f92ee8a960e01b60005260046000fd5b600080fdfe608080604052600436101561001357600080fd5b60003560e01c90816301ffc9a71461249257508063063513b7146124745780630c4cb55c1461244b5780631083f7611461242257806312d43a51146123f95780631f2f4bfd14611c75578063248a9ca314611c4f57806326bde5aa14611c0c5780632a7d4a1f14611a745780632e1a7d4d146119245780632f2ff15d146118f35780632f3a3d5d146118ca5780633094afb31461188f57806336568abe146118495780633e785737146116165780633f4ba83a146115935780635c975abb146115635780635ca3cedf146113ed578063634282af146113715780636e2b7631146112f7578063820e34d214610cfc5780638456cb5914610c8857806391d1485414610c2e5780639352dace14610beb5780639d7b684214610ba8578063a217fddf14610b8c578063b3cfd10414610b61578063bd1cf25814610b15578063c505371214610af7578063ccfefc0614610a24578063d547741f146109ec578063d739ac29146109cb578063ddf44275146109ad578063e02023a114610972578063e2baf888146108a3578063e887b1cc14610861578063eafed63e146102095763f7457594146101c157600080fd5b34610204576020366003190112610204576101da612526565b6101e2612a7c565b600c80546001600160a01b0319166001600160a01b0392909216919091179055005b600080fd5b346102045760a0366003190112610204576004356001600160401b038111610204576102399036906004016125ec565b6024356001600160401b038111610204576102589036906004016125ec565b906044356001600160401b03811161020457610278903690600401612659565b9060643592610285612568565b9261028e613312565b610296612acf565b600480546040516370a0823160e01b815233928101929092526001600160a01b031690602081602481855afa801561081f57879060009061082b575b6102de9250101561296f565b604051636eb1769f60e11b8152336004820152306024820152602081604481855afa801561081f5787916000916107e8575b5091610321826103369410156129bb565b61032d84511515612a12565b3090339061333c565b6000549361034385612a57565b60005560405193610353856125af565b84526020840192835260209560405161036c88826125cb565b60008152604086019081526060860190600082526080870192835260a087019360018060a01b0316845260c0870194855260e08701954387528860005260068a526040600020975180516001600160401b03811161066c576103d8816103d28c546126c1565b8c612857565b8b8c601f831160011461077f575081906104099360009261070b575b50508160011b916000199060031b1c19161790565b88555b60018801905180516001600160401b03811161066c576104368161043085546126c1565b85612857565b8b8c601f8311600114610716575081906104669360009261070b5750508160011b916000199060031b1c19161790565b90555b51805160028801916001600160401b03821161066c5761048d8261043085546126c1565b8a90601f83116001146106a3576104bc9291600091836106985750508160011b916000199060031b1c19161790565b90555b516003811015610682576104d69060038701612957565b516004850155516005840180546001600160a01b0319166001600160a01b039290921691909117905551805160068401916001600160401b03821161066c57600160401b821161066c578690835483855580841061061e575b500191600052856000208160051c9160005b8381106105df5750601f198116900380610592575b50505050600790519101557f0ff47c4a3dc48719ecfd1876116e80d7d76ec7cb67248ae49449f9104747af2982604051838152a1604051908152f35b9260009360005b898282106105b1575050505001556007858080610556565b6105d584978360ff60019596975116919060ff809160031b9316831b921b19161790565b9601929101610599565b6000805b8a8082106105f957505083820155600101610541565b875191979260019260ff60038b901b81811b19909316911690911b17920196016105e3565b61064a908560005283600020601f80870160051c82019281881680610650575b500160051c0190612840565b8861052f565b600019850190815490600019908a0360031b1c1690558d61063e565b634e487b7160e01b600052604160045260246000fd5b634e487b7160e01b600052602160045260246000fd5b015190508c806103f4565b60008481528c8120929190601f198516908e5b8282106106f35750509084600195949392106106da575b505050811b0190556104bf565b015160001960f88460031b161c191690558b80806106cd565b806001869782949787015181550196019401906106b6565b015190508d806103f4565b9192601f1984168560005283600020936000905b82821061076757505090846001959493921061074e575b505050811b019055610469565b015160001960f88460031b161c191690558c8080610741565b8060018697829497870151815501960194019061072a565b9192601f1984168c60005283600020936000905b8282106107d05750509084600195949392106107b7575b505050811b01885561040c565b015160001960f88460031b161c191690558c80806107aa565b80600186978294978701518155019601940190610793565b9150506020813d602011610817575b81610804602093836125cb565b8101031261020457518690610321610310565b3d91506107f7565b6040513d6000823e3d90fd5b50506020813d602011610859575b81610846602093836125cb565b8101031261020457866102de91516102d2565b3d9150610839565b34610204576020366003190112610204576004356008548110156102045761088a60209161257e565b905460405160039290921b1c6001600160a01b03168152f35b346102045760203660031901126102045761092a6004356007546108cd60ff8260a01c1615612893565b60ff60a01b1916600160a01b17600755600081815260066020526040902060050154336001600160a01b039190911614801561093a575b61090d906128d0565b604051906109258261091e816126fb565b03836125cb565b612dc6565b506007805460ff60a01b19169055005b503360009081527f5823e0d66e2a96f24807757f427eb1484ce655ac5deec6b013f8a4f8afa2963f602052604090205460ff16610904565b346102045760003660031901126102045760206040517f5d8e12c39142ff96d79d04d15d1ba1269e4fe57bb9d26f43523628b34ba108ec8152f35b34610204576000366003190112610204576020600254604051908152f35b34610204576020366003190112610204576109e4612a7c565b600435600555005b3461020457604036600319011261020457610a22600435610a0b612552565b90610a1d610a188261281f565b612b41565b612d26565b005b34610204576000366003190112610204576040516000600f54610a46816126c1565b8084529060018116908115610ad35750600114610a86575b610a8283610a6e818503826125cb565b6040519182916020835260208301906124e5565b0390f35b600f600090815260008051602061346a833981519152939250905b808210610ab957509091508101602001610a6e610a5e565b919260018160209254838588010152019101909291610aa1565b60ff191660208086019190915291151560051b84019091019150610a6e9050610a5e565b34610204576000366003190112610204576020600354604051908152f35b34610204576020366003190112610204577fcfa33021ab0175831433b2f3bd8eeb24a22f5ae53ca0e660a246811754f9e34a6020600435610b54612a7c565b80600255604051908152a1005b3461020457600036600319011261020457610a82604051610a6e81610b85816126fb565b03826125cb565b3461020457600036600319011261020457602060405160008152f35b3461020457602036600319011261020457610bc1612526565b610bc9612a7c565b600d80546001600160a01b0319166001600160a01b0392909216919091179055005b3461020457602036600319011261020457610c04612526565b610c0c612a7c565b600180546001600160a01b0319166001600160a01b0392909216919091179055005b3461020457604036600319011261020457610c47612552565b60043560005260008051602061340a83398151915260205260406000209060018060a01b0316600052602052602060ff604060002054166040519015158152f35b3461020457600036600319011261020457610ca1612a7c565b610ca9613312565b600160ff1960008051602061342a83398151915254161760008051602061342a833981519152557f62e78cea01bee320cd4e420270b5ea74000d11b0c9f74754ebdbfc544b05a2586020604051338152a1005b34610204576080366003190112610204576004356001600160401b03811161020457610d2c9036906004016125ec565b6024356001600160401b03811161020457610d4b9036906004016125ec565b906044356001600160401b03811161020457610d6b9036906004016125ec565b906064356001600160401b03811161020457610d8b903690600401612659565b92610d94613312565b600480546040516370a0823160e01b815233928101929092526001600160a01b031690602081602481855afa90811561081f576000916112c5575b50610ddf6002548092101561296f565b604051636eb1769f60e11b815233600482015230602482015291602083604481845afa92831561081f5760009361128f575b50610e2182610e2d9410156129bb565b61032d87511515612a12565b60005492610e3a84612a57565b60005560025460405193610e4d856125af565b8452602084019283526040840191825260608401600081526080850191825260a085019233845260c0860197885260e0860194438652876000526006602052604060002096518051906001600160401b03821161066c57610eb882610eb28b546126c1565b8b612857565b602090601f831160011461122857610ee89291600091836106985750508160011b916000199060031b1c19161790565b87555b51805160018801916001600160401b03821161066c57610f0f8261043085546126c1565b602090601f83116001146111c157610f3f9291600091836106985750508160011b916000199060031b1c19161790565b90555b51805160028701916001600160401b03821161066c57610f668261043085546126c1565b602090601f831160011461115a57610f9692916000918361114f5750508160011b916000199060031b1c19161790565b90555b51600381101561068257610fb09060038601612957565b516004840155516005830180546001600160a01b0319166001600160a01b0392909216919091179055925180516006830194916001600160401b03821161066c57600160401b821161066c576020908654838855808410611102575b50019460005260206000208160051c9160005b8381106110c25750601f198116900380611070575b60208686600787519101557f0ff47c4a3dc48719ecfd1876116e80d7d76ec7cb67248ae49449f9104747af2982604051838152a1604051908152f35b9560009660005b81811061109257505050019390935560209260078580611034565b90919760206110b86001928460ff8d5116919060ff809160031b9316831b921b19161790565b9901929101611077565b6000805b602081106110db57508382015560010161101f565b895190999160019160209160ff60038e901b81811b199092169216901b17920199016110c6565b61112d908860005283600020601f80870160051c8201928188168061113357500160051c0190612840565b8761100c565b600019850190815490600019908a0360031b1c1690558c61063e565b015190508b806103f4565b90601f1983169184600052816000209260005b8181106111a95750908460019594939210611190575b505050811b019055610f99565b015160001960f88460031b161c191690558a8080611183565b9293602060018192878601518155019501930161116d565b90601f1983169184600052816000209260005b81811061121057509084600195949392106111f7575b505050811b019055610f42565b015160001960f88460031b161c191690558b80806111ea565b929360206001819287860151815501950193016111d4565b90601f198316918a600052816000209260005b818110611277575090846001959493921061125e575b505050811b018755610eeb565b015160001960f88460031b161c191690558b8080611251565b9293602060018192878601518155019501930161123b565b92506020833d6020116112bd575b816112aa602093836125cb565b8101031261020457915191610e21610e11565b3d915061129d565b90506020813d6020116112ef575b816112e0602093836125cb565b81010312610204575186610dcf565b3d91506112d3565b3461020457602036600319011261020457611310612acf565b60075461132360ff8260a01c1615612893565b60ff60a01b1916600160a01b176007556040516020906113529061134a81610b85816126fb565b600435612dc6565b6007805460ff60a01b191690556040516001600160a01b039091168152f35b3461020457602036600319011261020457600435600354811015610204576000906003548110156113d95760039091527fc2575a0e9e593c00f959f8c92f12db2869c3395a3b0502d05e2516446f71f85b01546040516001600160a01b039091168152602090f35b634e487b7160e01b82526032600452602482fd5b34610204576080366003190112610204576064356001600160a01b038116908190036102045761141b612a7c565b6040519060043560208301526024356040830152604435606083015260808201526080815261144b60a0826125cb565b80516001600160401b03811161066c57611466600f546126c1565b601f811161151b575b50602091601f82116001146114af5761149f92600091836114a45750508160011b916000199060031b1c19161790565b600f55005b0151905083806103f4565b601f19821692600f60005260008051602061346a8339815191529160005b858110611503575083600195106114ea575b505050811b01600f55005b015160001960f88460031b161c191690558280806114df565b919260206001819286850151815501940192016114cd565b600f6000526115539060008051602061346a833981519152601f840160051c81019160208510611559575b601f0160051c0190612840565b8261146f565b9091508190611546565b3461020457600036600319011261020457602060ff60008051602061342a83398151915254166040519015158152f35b34610204576000366003190112610204576115ac612a7c565b60008051602061342a8339815191525460ff8116156116055760ff191660008051602061342a833981519152557f5db9ee0a495bf2e6ff9c91a7834c1ba4fdd244a5e8aa4e537bd38aeae4b073aa6020604051338152a1005b638dfc202b60e01b60005260046000fd5b346102045760e03660031901126102045761162f612526565b611637612552565b61163f612568565b60a4356001600160a01b03811691908290036102045761165d61253c565b9260008051602061344a833981519152549460ff8660401c1615956001600160401b03811680159081611841575b6001149081611837575b15908161182e575b5061181d5767ffffffffffffffff19811660011760008051602061344a83398151915255866117f0575b506116d06133db565b6116d86133db565b60ff1960008051602061342a833981519152541660008051602061342a8339815191525560018060a01b03166001600160601b0360a01b600154161760015560018060a01b03166001600160601b0360a01b600454161760045560443560025560643560005560018060a01b03166001600160601b0360a01b600c541617600c556001600160601b0360a01b600954161760095560018060a01b03166001600160601b0360a01b600a541617600a5561179033612bcb565b5061179757005b68ff00000000000000001960008051602061344a833981519152541660008051602061344a833981519152557fc7f505b2f371ae2175ee4913f4499e1f2633a7b5936321eed1cdaeb6115181d2602060405160018152a1005b68ffffffffffffffffff1916680100000000000000011760008051602061344a83398151915255866116c7565b63f92ee8a960e01b60005260046000fd5b9050158861169d565b303b159150611695565b88915061168b565b3461020457604036600319011261020457611862612552565b336001600160a01b0382160361187e57610a2290600435612d26565b63334bd91960e11b60005260046000fd5b346102045760003660031901126102045760206040517f360f1ba4dc07a42c6671063d838f69946ccc4187f391399e06fd8ed4605900f38152f35b34610204576000366003190112610204576001546040516001600160a01b039091168152602090f35b3461020457604036600319011261020457610a22600435611912612552565b9061191f610a188261281f565b612c7d565b346102045760203660031901126102045760075461194860ff8260a01c1615612893565b60ff60a01b1916600160a01b176007556004356000908152600660205260409020600581018054336001600160a01b0391909116148015611a3c575b61198d906128d0565b600382019060ff8254166003811015610682576119aa901561290b565b60078301544311156119f757600492830180546000909155825460ff1916600217909255915491546119e8926001600160a01b039182169116612b8b565b6007805460ff60a01b19169055005b60405162461bcd60e51b815260206004820152601e60248201527f4170706c69636174696f6e206973206e6f74206d6174757265642079657400006044820152606490fd5b503360009081527f5823e0d66e2a96f24807757f427eb1484ce655ac5deec6b013f8a4f8afa2963f602052604090205460ff16611984565b346102045760e036600319011261020457611a8d61253c565b611a95612a7c565b60405190600435602083015260243560408301526044356060830152606435608083015260843560a083015260a43560c083015260018060a01b031660e082015260e08152611ae6610100826125cb565b80516001600160401b03811161066c57611b01600e546126c1565b601f8111611bbd575b50602091601f8211600114611b3f57611b3a92600091836114a45750508160011b916000199060031b1c19161790565b600e55005b601f19821692600e6000527fbb7b4a454dc3493923482f07822329ed19e8244eff582cc204f8554c3620c3fd9160005b858110611ba557508360019510611b8c575b505050811b01600e55005b015160001960f88460031b161c19169055828080611b81565b91926020600181928685015181550194019201611b6f565b600e600052611c06907fbb7b4a454dc3493923482f07822329ed19e8244eff582cc204f8554c3620c3fd601f840160051c8101916020851061155957601f0160051c0190612840565b82611b0a565b3461020457602036600319011261020457611c25612526565b611c2d612a7c565b600480546001600160a01b0319166001600160a01b0392909216919091179055005b34610204576020366003190112610204576020611c6d60043561281f565b604051908152f35b3461020457602036600319011261020457600060e0604051611c96816125af565b6060815260606020820152606060408201528260608201528260808201528260a0820152606060c0820152015260043560005260066020526040600020604051611cdf816125af565b604051611cf081610b85818661279c565b8152604051611d0681610b85816001870161279c565b6020820190815260405192611d2984611d22816002850161279c565b03856125cb565b6040830193845260ff600382015416936060840194600381101561068257855260048201546080850190815260058301546001600160a01b031660a0860190815260405160068501805480835260009182526020808320939794969493889391840192905b81601f8401106122515793600793611f08979693611eb293611ef597549181811061223d575b818110612226575b81811061220f575b8181106121f8575b8181106121e2575b8181106121cb575b8181106121b4575b81811061219d575b818110612186575b81811061216f575b818110612158575b818110612141575b81811061212a575b818110612113575b8181106120fc575b8181106120e5575b8181106120ce575b8181106120b7575b8181106120a0575b818110612089575b818110612072575b81811061205b575b818110612044575b81811061202d575b818110612016575b818110611fff575b818110611fe8575b818110611fd1575b818110611fba575b818110611fa3575b818110611f8c575b10611f7e575b5003896125cb565b60c08a0197885201549660e08901978852611ee26040519960208b525161010060208c01526101208b01906124e5565b9051898203601f190160408b01526124e5565b9051878203601f190160608901526124e5565b955160038110156106825760808601525160a0850152516001600160a01b031660c084015251828403601f190160e084015280518085526000946020908101939201905b808610611f63575050829350516101008301520390f35b909260208060019260ff875116815201940195019490611f4c565b60f81c81526020018e611eaa565b92602060019160ff8560f01c168152019301611ea4565b92602060019160ff8560e81c168152019301611e9c565b92602060019160ff8560e01c168152019301611e94565b92602060019160ff8560d81c168152019301611e8c565b92602060019160ff8560d01c168152019301611e84565b92602060019160ff8560c81c168152019301611e7c565b92602060019160ff8560c01c168152019301611e74565b92602060019160ff8560b81c168152019301611e6c565b92602060019160ff8560b01c168152019301611e64565b92602060019160ff8560a81c168152019301611e5c565b92602060019160ff8560a01c168152019301611e54565b92602060019160ff8560981c168152019301611e4c565b92602060019160ff8560901c168152019301611e44565b92602060019160ff8560881c168152019301611e3c565b92602060019160ff8560801c168152019301611e34565b92602060019160ff8560781c168152019301611e2c565b92602060019160ff8560701c168152019301611e24565b92602060019160ff8560681c168152019301611e1c565b92602060019160ff8560601c168152019301611e14565b92602060019160ff8560581c168152019301611e0c565b92602060019160ff8560501c168152019301611e04565b92602060019160ff8560481c168152019301611dfc565b92602060019160ff8560401c168152019301611df4565b92602060019160ff8560381c168152019301611dec565b92602060019160ff8560301c168152019301611de4565b92602060019160ff8560281c168152019301611ddc565b92602060019160ff85831c168152019301611dd4565b92602060019160ff8560181c168152019301611dcc565b92602060019160ff8560101c168152019301611dc4565b92602060019160ff8560081c168152019301611dbc565b92602060019160ff85168152019301611db4565b935090916001610400602092865460ff8116825260ff8160081c168583015260ff8160101c16604083015260ff8160181c16606083015260ff81861c16608083015260ff8160281c1660a083015260ff8160301c1660c083015260ff8160381c1660e083015260ff8160401c1661010083015260ff8160481c1661012083015260ff8160501c1661014083015260ff8160581c1661016083015260ff8160601c1661018083015260ff8160681c166101a083015260ff8160701c166101c083015260ff8160781c166101e083015260ff8160801c1661020083015260ff8160881c1661022083015260ff8160901c1661024083015260ff8160981c1661026083015260ff8160a01c1661028083015260ff8160a81c166102a083015260ff8160b01c166102c083015260ff8160b81c166102e083015260ff8160c01c1661030083015260ff8160c81c1661032083015260ff8160d01c1661034083015260ff8160d81c1661036083015260ff8160e01c1661038083015260ff8160e81c166103a083015260ff8160f01c166103c083015260f81c6103e0820152019401920190889392611d8e565b34610204576000366003190112610204576007546040516001600160a01b039091168152602090f35b34610204576000366003190112610204576004546040516001600160a01b039091168152602090f35b3461020457600036600319011261020457600d546040516001600160a01b039091168152602090f35b34610204576000366003190112610204576020600554604051908152f35b34610204576020366003190112610204576004359063ffffffff60e01b821680920361020457602091637965db0b60e01b81149081156124d4575b5015158152f35b6301ffc9a760e01b149050836124cd565b919082519283825260005b848110612511575050826000602080949584010152601f8019910116010190565b806020809284010151828286010152016124f0565b600435906001600160a01b038216820361020457565b60c435906001600160a01b038216820361020457565b602435906001600160a01b038216820361020457565b608435906001600160a01b038216820361020457565b60085481101561259957600860005260206000200190600090565b634e487b7160e01b600052603260045260246000fd5b61010081019081106001600160401b0382111761066c57604052565b90601f801991011681019081106001600160401b0382111761066c57604052565b81601f82011215610204578035906001600160401b03821161066c5760405192612620601f8401601f1916602001856125cb565b8284526020838301011161020457816000926020809301838601378301015290565b6001600160401b03811161066c5760051b60200190565b9080601f830112156102045781359061267182612642565b9261267f60405194856125cb565b82845260208085019360051b82010191821161020457602001915b8183106126a75750505090565b823560ff811681036102045781526020928301920161269a565b90600182811c921680156126f1575b60208310146126db57565b634e487b7160e01b600052602260045260246000fd5b91607f16916126d0565b600e546000929161270b826126c1565b80825291600181169081156127805750600114612726575050565b600e60009081529293509091907fbb7b4a454dc3493923482f07822329ed19e8244eff582cc204f8554c3620c3fd5b838310612766575060209250010190565b600181602092949394548385870101520191019190612755565b9050602093945060ff929192191683830152151560051b010190565b600092918154916127ac836126c1565b808352926001811690811561280257506001146127c857505050565b60009081526020812093945091925b8383106127e8575060209250010190565b6001816020929493945483858701015201910191906127d7565b915050602093945060ff929192191683830152151560051b010190565b60005260008051602061340a83398151915260205260016040600020015490565b81811061284b575050565b60008155600101612840565b9190601f811161286657505050565b612891926000526020600020906020601f840160051c8301931061155957601f0160051c0190612840565b565b1561289a57565b60405162461bcd60e51b815260206004820152600e60248201526d31b0b73737ba103932b2b73a32b960911b6044820152606490fd5b156128d757565b60405162461bcd60e51b815260206004820152600c60248201526b2737ba10383937b837b9b2b960a11b6044820152606490fd5b1561291257565b60405162461bcd60e51b815260206004820152601960248201527f4170706c69636174696f6e206973206e6f7420616374697665000000000000006044820152606490fd5b9060038110156106825760ff80198354169116179055565b1561297657565b60405162461bcd60e51b815260206004820152601860248201527f496e73756666696369656e7420617373657420746f6b656e00000000000000006044820152606490fd5b156129c257565b60405162461bcd60e51b815260206004820152602260248201527f496e73756666696369656e7420617373657420746f6b656e20616c6c6f77616e604482015261636560f01b6064820152608490fd5b15612a1957565b60405162461bcd60e51b815260206004820152601660248201527510dbdc995cc81b5d5cdd081899481c1c9bdd9a59195960521b6044820152606490fd5b6000198114612a665760010190565b634e487b7160e01b600052601160045260246000fd5b3360009081527fb7db2dd08fcb62d0c9e08c51941cae53c267786a0b75803fb7960902fc8ef97d602052604090205460ff1615612ab557565b63e2517d3f60e01b60005233600452600060245260446000fd5b3360009081527f7fd9957335868d530b3a02e10a71f86271a34deadb5ee52b2ba3d611ed087617602052604090205460ff1615612b0857565b63e2517d3f60e01b600052336004527f360f1ba4dc07a42c6671063d838f69946ccc4187f391399e06fd8ed4605900f360245260446000fd5b600081815260008051602061340a8339815191526020908152604080832033845290915290205460ff1615612b735750565b63e2517d3f60e01b6000523360045260245260446000fd5b60405163a9059cbb60e01b60208201526001600160a01b03909216602483015260448083019390935291815261289191612bc66064836125cb565b613380565b6001600160a01b03811660009081527fb7db2dd08fcb62d0c9e08c51941cae53c267786a0b75803fb7960902fc8ef97d602052604090205460ff16612c77576001600160a01b031660008181527fb7db2dd08fcb62d0c9e08c51941cae53c267786a0b75803fb7960902fc8ef97d60205260408120805460ff191660011790553391907f2f8788117e7eff1d82e926ec794901d17c78024a50270940304540a733656f0d8180a4600190565b50600090565b600081815260008051602061340a833981519152602090815260408083206001600160a01b038616845290915290205460ff16612d1f57600081815260008051602061340a833981519152602090815260408083206001600160a01b0395909516808452949091528120805460ff19166001179055339291907f2f8788117e7eff1d82e926ec794901d17c78024a50270940304540a733656f0d9080a4600190565b5050600090565b600081815260008051602061340a833981519152602090815260408083206001600160a01b038616845290915290205460ff1615612d1f57600081815260008051602061340a833981519152602090815260408083206001600160a01b0395909516808452949091528120805460ff19169055339291907ff6391f5c32d9c69d2a47ea670b442974b53935d1edc7fd64eb21e047a839171b9080a4600190565b600090808252600660205260ff60036040842001541660038110156132fe57612def901561290b565b600c546001600160a01b0316156132c357815260066020526040812060048101828154915560038201600160ff198254161790556001612e5160405193612e4185612e3a818461279c565b03866125cb565b610b85604051809481930161279c565b600154608881901c62ffffff16763d602d80600a3d3981f3363d3d373d3d3d363d7300000017855260781b6effffffffffffffffffffffffffffff19166e5af43d82803e903d91602b57fd5bf3176020526037600985f0946001600160a01b0386169384156132b45760405192608084018481106001600160401b038211176132a0576040908152600c546001600160a01b0390811686526004548116602080880191909152600954821687840152600a5490911660608088019190915282519182019290925292612f4f928492612f4192612f2f918501906124e5565b838103601f19016040850152906124e5565b03601f1981018352826125cb565b843b1561319c5760405163ea5b5f7f60e01b81529286928492909184600485015b6004821061327a5750505090612f94612fa69260e0608486015260e48501906124e5565b8381036003190160a4850152906124e5565b8181036003190160c4830152600f548391612fc0826126c1565b918282528460018216918260001461325c575050600114613210575b50508190038183875af18015613205576131f1575b50600854600160401b8110156131dd579061301582600161303f940160085561257e565b81546001600160a01b0360039290921b82811b199091169086901b17909155600454869116612b8b565b803b156131ce57604051631672aef960e21b8152306004820152828160248183865af180156131d2576131b9575b5090806004926040519384809263d6efd7c360e01b82525afa9182156131ac5781926130f9575b508151156130e55750602090810151604080516001600160a01b038581168252909216928201929092527f608ac3d003f21569fa2ccce1dad753ecb57c87b716b52765e73884bd20e322e49190a190565b634e487b7160e01b81526032600452602490fd5b9091503d8083833e61310b81836125cb565b8101906020818303126131a4578051906001600160401b0382116131a857019080601f830112156131a45781519061314282612642565b9261315060405194856125cb565b82845260208085019360051b8201019182116131a057602001915b81831061317c575050509038613094565b82516001600160a01b038116810361319c5781526020928301920161316b565b8580fd5b8480fd5b8280fd5b8380fd5b50604051903d90823e3d90fd5b6131c48380926125cb565b6131ce573861306d565b5080fd5b6040513d85823e3d90fd5b634e487b7160e01b84526041600452602484fd5b836131fe919492946125cb565b9138612ff1565b6040513d86823e3d90fd5b600f85528492509060008051602061346a8339815191525b81841061323c575050016020018138612fdc565b600191955060209294508054838587010152019101909187938593613228565b909450602093915060ff191683830152151560051b01019038612fdc565b82516001600160a01b031681528a96508795506020928301926001929092019101612f70565b634e487b7160e01b88526041600452602488fd5b63b06ebf3d60e01b8652600486fd5b60405162461bcd60e51b8152602060048201526013602482015272151bdad95b8818591b5a5b881b9bdd081cd95d606a1b6044820152606490fd5b634e487b7160e01b83526021600452602483fd5b60ff60008051602061342a833981519152541661332b57565b63d93c066560e01b60005260046000fd5b6040516323b872dd60e01b60208201526001600160a01b03928316602482015292909116604483015260648083019390935291815261289191612bc66084836125cb565b906000602091828151910182855af11561081f576000513d6133d257506001600160a01b0381163b155b6133b15750565b635274afe760e01b60009081526001600160a01b0391909116600452602490fd5b600114156133aa565b60ff60008051602061344a8339815191525460401c16156133f857565b631afcd79f60e31b60005260046000fdfe02dd7bc7dec4dceedda775e58dd541e08a116c6c53815c0bd028192f7b626800cd5ed15c6e187e77e9aee88184c21f4f2182ab5827cb3b7e07fbedcd63f03300f0c57e16840df040f15088dc2f81fe391c3923bec73e23a9662efc9c229c6a008d1108e10bcb7c27dddfc02ed9d693a074039d026cf4ea4240b40f7d581ac802a26469706673582212201a58cd01c7ffcfbc6324425207722f7290b243c6d656d4449bf171850196f76764736f6c634300081c0033",
  "linkReferences": {},
  "deployedLinkReferences": {}
}