{
  "_format": "hh-sol-artifact-1",
  "contractName": "Bonding",
  "sourceName": "contracts/fun/Bonding.sol",
  "abi": [
    {
      "inputs": [],
      "stateMutability": "nonpayable",
      "type": "constructor"
    },
    {
      "inputs": [],
      "name": "InvalidInitialization",
      "type": "error"
    },
    {
      "inputs": [],
      "name": "NotInitializing",
      "type": "error"
    },
    {
      "inputs": [
        {
          "internalType": "address",
          "name": "owner",
          "type": "address"
        }
      ],
      "name": "OwnableInvalidOwner",
      "type": "error"
    },
    {
      "inputs": [
        {
          "internalType": "address",
          "name": "account",
          "type": "address"
        }
      ],
      "name": "OwnableUnauthorizedAccount",
      "type": "error"
    },
    {
      "inputs": [],
      "name": "ReentrancyGuardReentrantCall",
      "type": "error"
    },
    {
      "inputs": [
        {
          "internalType": "address",
          "name": "token",
          "type": "address"
        }
      ],
      "name": "SafeERC20FailedOperation",
      "type": "error"
    },
    {
      "anonymous": false,
      "inputs": [
        {
          "indexed": true,
          "internalType": "address",
          "name": "token",
          "type": "address"
        },
        {
          "indexed": false,
          "internalType": "uint256",
          "name": "amount0",
          "type": "uint256"
        },
        {
          "indexed": false,
          "internalType": "uint256",
          "name": "amount1",
          "type": "uint256"
        }
      ],
      "name": "Deployed",
      "type": "event"
    },
    {
      "anonymous": false,
      "inputs": [
        {
          "indexed": true,
          "internalType": "address",
          "name": "token",
          "type": "address"
        },
        {
          "indexed": false,
          "internalType": "address",
          "name": "agentToken",
          "type": "address"
        }
      ],
      "name": "Graduated",
      "type": "event"
    },
    {
      "anonymous": false,
      "inputs": [
        {
          "indexed": false,
          "internalType": "uint64",
          "name": "version",
          "type": "uint64"
        }
      ],
      "name": "Initialized",
      "type": "event"
    },
    {
      "anonymous": false,
      "inputs": [
        {
          "indexed": true,
          "internalType": "address",
          "name": "token",
          "type": "address"
        },
        {
          "indexed": true,
          "internalType": "address",
          "name": "pair",
          "type": "address"
        },
        {
          "indexed": false,
          "internalType": "uint256",
          "name": "",
          "type": "uint256"
        }
      ],
      "name": "Launched",
      "type": "event"
    },
    {
      "anonymous": false,
      "inputs": [
        {
          "indexed": true,
          "internalType": "address",
          "name": "previousOwner",
          "type": "address"
        },
        {
          "indexed": true,
          "internalType": "address",
          "name": "newOwner",
          "type": "address"
        }
      ],
      "name": "OwnershipTransferred",
      "type": "event"
    },
    {
      "inputs": [],
      "name": "DAY_IN_SECONDS",
      "outputs": [
        {
          "internalType": "uint256",
          "name": "",
          "type": "uint256"
        }
      ],
      "stateMutability": "view",
      "type": "function"
    },
    {
      "inputs": [],
      "name": "K",
      "outputs": [
        {
          "internalType": "uint256",
          "name": "",
          "type": "uint256"
        }
      ],
      "stateMutability": "view",
      "type": "function"
    },
    {
      "inputs": [],
      "name": "agentFactory",
      "outputs": [
        {
          "internalType": "address",
          "name": "",
          "type": "address"
        }
      ],
      "stateMutability": "view",
      "type": "function"
    },
    {
      "inputs": [],
      "name": "assetRate",
      "outputs": [
        {
          "internalType": "uint256",
          "name": "",
          "type": "uint256"
        }
      ],
      "stateMutability": "view",
      "type": "function"
    },
    {
      "inputs": [
        {
          "internalType": "uint256",
          "name": "amountIn",
          "type": "uint256"
        },
        {
          "internalType": "address",
          "name": "tokenAddress",
          "type": "address"
        }
      ],
      "name": "buy",
      "outputs": [
        {
          "internalType": "bool",
          "name": "",
          "type": "bool"
        }
      ],
      "stateMutability": "payable",
      "type": "function"
    },
    {
      "inputs": [],
      "name": "factory",
      "outputs": [
        {
          "internalType": "contract FFactory",
          "name": "",
          "type": "address"
        }
      ],
      "stateMutability": "view",
      "type": "function"
    },
    {
      "inputs": [],
      "name": "fee",
      "outputs": [
        {
          "internalType": "uint256",
          "name": "",
          "type": "uint256"
        }
      ],
      "stateMutability": "view",
      "type": "function"
    },
    {
      "inputs": [
        {
          "internalType": "address",
          "name": "account",
          "type": "address"
        }
      ],
      "name": "getUserTokens",
      "outputs": [
        {
          "internalType": "address[]",
          "name": "",
          "type": "address[]"
        }
      ],
      "stateMutability": "view",
      "type": "function"
    },
    {
      "inputs": [],
      "name": "gradThreshold",
      "outputs": [
        {
          "internalType": "uint256",
          "name": "",
          "type": "uint256"
        }
      ],
      "stateMutability": "view",
      "type": "function"
    },
    {
      "inputs": [],
      "name": "initialSupply",
      "outputs": [
        {
          "internalType": "uint256",
          "name": "",
          "type": "uint256"
        }
      ],
      "stateMutability": "view",
      "type": "function"
    },
    {
      "inputs": [
        {
          "internalType": "address",
          "name": "factory_",
          "type": "address"
        },
        {
          "internalType": "address",
          "name": "router_",
          "type": "address"
        },
        {
          "internalType": "address",
          "name": "feeTo_",
          "type": "address"
        },
        {
          "internalType": "uint256",
          "name": "fee_",
          "type": "uint256"
        },
        {
          "internalType": "uint256",
          "name": "initialSupply_",
          "type": "uint256"
        },
        {
          "internalType": "uint256",
          "name": "assetRate_",
          "type": "uint256"
        },
        {
          "internalType": "uint256",
          "name": "maxTx_",
          "type": "uint256"
        },
        {
          "internalType": "address",
          "name": "agentFactory_",
          "type": "address"
        },
        {
          "internalType": "uint256",
          "name": "gradThreshold_",
          "type": "uint256"
        }
      ],
      "name": "initialize",
      "outputs": [],
      "stateMutability": "nonpayable",
      "type": "function"
    },
    {
      "inputs": [
        {
          "internalType": "string",
          "name": "_name",
          "type": "string"
        },
        {
          "internalType": "string",
          "name": "_ticker",
          "type": "string"
        },
        {
          "internalType": "uint8[]",
          "name": "cores",
          "type": "uint8[]"
        },
        {
          "internalType": "string",
          "name": "desc",
          "type": "string"
        },
        {
          "internalType": "string",
          "name": "img",
          "type": "string"
        },
        {
          "internalType": "string[4]",
          "name": "urls",
          "type": "string[4]"
        },
        {
          "internalType": "uint256",
          "name": "purchaseAmount",
          "type": "uint256"
        }
      ],
      "name": "launch",
      "outputs": [
        {
          "internalType": "address",
          "name": "",
          "type": "address"
        },
        {
          "internalType": "address",
          "name": "",
          "type": "address"
        },
        {
          "internalType": "uint256",
          "name": "",
          "type": "uint256"
        }
      ],
      "stateMutability": "nonpayable",
      "type": "function"
    },
    {
      "inputs": [],
      "name": "maxTx",
      "outputs": [
        {
          "internalType": "uint256",
          "name": "",
          "type": "uint256"
        }
      ],
      "stateMutability": "view",
      "type": "function"
    },
    {
      "inputs": [],
      "name": "owner",
      "outputs": [
        {
          "internalType": "address",
          "name": "",
          "type": "address"
        }
      ],
      "stateMutability": "view",
      "type": "function"
    },
    {
      "inputs": [
        {
          "internalType": "address",
          "name": "",
          "type": "address"
        }
      ],
      "name": "profile",
      "outputs": [
        {
          "internalType": "address",
          "name": "user",
          "type": "address"
        }
      ],
      "stateMutability": "view",
      "type": "function"
    },
    {
      "inputs": [
        {
          "internalType": "uint256",
          "name": "",
          "type": "uint256"
        }
      ],
      "name": "profiles",
      "outputs": [
        {
          "internalType": "address",
          "name": "",
          "type": "address"
        }
      ],
      "stateMutability": "view",
      "type": "function"
    },
    {
      "inputs": [],
      "name": "renounceOwnership",
      "outputs": [],
      "stateMutability": "nonpayable",
      "type": "function"
    },
    {
      "inputs": [],
      "name": "router",
      "outputs": [
        {
          "internalType": "contract FRouter",
          "name": "",
          "type": "address"
        }
      ],
      "stateMutability": "view",
      "type": "function"
    },
    {
      "inputs": [
        {
          "internalType": "uint256",
          "name": "amountIn",
          "type": "uint256"
        },
        {
          "internalType": "address",
          "name": "tokenAddress",
          "type": "address"
        }
      ],
      "name": "sell",
      "outputs": [
        {
          "internalType": "bool",
          "name": "",
          "type": "bool"
        }
      ],
      "stateMutability": "nonpayable",
      "type": "function"
    },
    {
      "inputs": [
        {
          "internalType": "uint256",
          "name": "newRate",
          "type": "uint256"
        }
      ],
      "name": "setAssetRate",
      "outputs": [],
      "stateMutability": "nonpayable",
      "type": "function"
    },
    {
      "inputs": [
        {
          "internalType": "uint256",
          "name": "newFee",
          "type": "uint256"
        },
        {
          "internalType": "address",
          "name": "newFeeTo",
          "type": "address"
        }
      ],
      "name": "setFee",
      "outputs": [],
      "stateMutability": "nonpayable",
      "type": "function"
    },
    {
      "inputs": [
        {
          "internalType": "uint256",
          "name": "newThreshold",
          "type": "uint256"
        }
      ],
      "name": "setGradThreshold",
      "outputs": [],
      "stateMutability": "nonpayable",
      "type": "function"
    },
    {
      "inputs": [
        {
          "internalType": "uint256",
          "name": "newSupply",
          "type": "uint256"
        }
      ],
      "name": "setInitialSupply",
      "outputs": [],
      "stateMutability": "nonpayable",
      "type": "function"
    },
    {
      "inputs": [
        {
          "internalType": "uint256",
          "name": "maxTx_",
          "type": "uint256"
        }
      ],
      "name": "setMaxTx",
      "outputs": [],
      "stateMutability": "nonpayable",
      "type": "function"
    },
    {
      "inputs": [
        {
          "internalType": "address",
          "name": "",
          "type": "address"
        }
      ],
      "name": "tokenInfo",
      "outputs": [
        {
          "internalType": "address",
          "name": "creator",
          "type": "address"
        },
        {
          "internalType": "address",
          "name": "token",
          "type": "address"
        },
        {
          "internalType": "address",
          "name": "pair",
          "type": "address"
        },
        {
          "internalType": "address",
          "name": "agentToken",
          "type": "address"
        },
        {
          "components": [
            {
              "internalType": "address",
              "name": "token",
              "type": "address"
            },
            {
              "internalType": "string",
              "name": "name",
              "type": "string"
            },
            {
              "internalType": "string",
              "name": "_name",
              "type": "string"
            },
            {
              "internalType": "string",
              "name": "ticker",
              "type": "string"
            },
            {
              "internalType": "uint256",
              "name": "supply",
              "type": "uint256"
            },
            {
              "internalType": "uint256",
              "name": "price",
              "type": "uint256"
            },
            {
              "internalType": "uint256",
              "name": "marketCap",
              "type": "uint256"
            },
            {
              "internalType": "uint256",
              "name": "liquidity",
              "type": "uint256"
            },
            {
              "internalType": "uint256",
              "name": "volume",
              "type": "uint256"
            },
            {
              "internalType": "uint256",
              "name": "volume24H",
              "type": "uint256"
            },
            {
              "internalType": "uint256",
              "name": "prevPrice",
              "type": "uint256"
            },
            {
              "internalType": "uint256",
              "name": "lastUpdated",
              "type": "uint256"
            }
          ],
          "internalType": "struct Bonding.Data",
          "name": "data",
          "type": "tuple"
        },
        {
          "internalType": "string",
          "name": "description",
          "type": "string"
        },
        {
          "internalType": "string",
          "name": "image",
          "type": "string"
        },
        {
          "internalType": "string",
          "name": "twitter",
          "type": "string"
        },
        {
          "internalType": "string",
          "name": "telegram",
          "type": "string"
        },
        {
          "internalType": "string",
          "name": "youtube",
          "type": "string"
        },
        {
          "internalType": "string",
          "name": "website",
          "type": "string"
        },
        {
          "internalType": "bool",
          "name": "trading",
          "type": "bool"
        },
        {
          "internalType": "bool",
          "name": "tradingOnUniswap",
          "type": "bool"
        }
      ],
      "stateMutability": "view",
      "type": "function"
    },
    {
      "inputs": [
        {
          "internalType": "uint256",
          "name": "",
          "type": "uint256"
        }
      ],
      "name": "tokenInfos",
      "outputs": [
        {
          "internalType": "address",
          "name": "",
          "type": "address"
        }
      ],
      "stateMutability": "view",
      "type": "function"
    },
    {
      "inputs": [
        {
          "internalType": "address",
          "name": "newOwner",
          "type": "address"
        }
      ],
      "name": "transferOwnership",
      "outputs": [],
      "stateMutability": "nonpayable",
      "type": "function"
    },
    {
      "inputs": [
        {
          "internalType": "address",
          "name": "srcTokenAddress",
          "type": "address"
        },
        {
          "internalType": "address[]",
          "name": "accounts",
          "type": "address[]"
        }
      ],
      "name": "unwrapToken",
      "outputs": [],
      "stateMutability": "nonpayable",
      "type": "function"
    }
  ],
  "bytecode": "0x6080806040523460d2577ff0c57e16840df040f15088dc2f81fe391c3923bec73e23a9662efc9c229c6a005460ff8160401c1660c1576002600160401b03196001600160401b03821601605c575b60405161575a90816100d88239f35b6001600160401b0319166001600160401b039081177ff0c57e16840df040f15088dc2f81fe391c3923bec73e23a9662efc9c229c6a005581527fc7f505b2f371ae2175ee4913f4499e1f2633a7b5936321eed1cdaeb6115181d290602090a13880604d565b63f92ee8a960e01b60005260046000fd5b600080fdfe6080604052600436101561001257600080fd5b6000803560e01c806309c8962c14613f6a578063378dc3dc14613f4c5780633c0b93aa146128f05780634189a68e14612593578063519dc8d2146124425780635fdc62811461242457806361402596146124015780636edd12e0146123e3578063715018a6146123795780637437681e1461235b5780637c13774b146122f55780637deb6025146113c55780637df107ea1461139c5780637f13a90b146108bb5780638da5cb5b146108855780639dd9d0fd14610844578063a932492f14610823578063b4f2e8b8146107dd578063bc337182146107ba578063c36fe3d614610739578063c45a015514610710578063cc489688146106b7578063ddca3f4314610699578063e8e6ed691461067b578063ea6eef4914610427578063f2fde38b146103fa578063f5dab7111461017c5763f887ea401461015157600080fd5b346101795780600319360112610179576002546040516001600160a01b039091168152602090f35b80fd5b5034610179576020366003190112610179576001600160a01b0361019e61409a565b168152600b6020526040902080546001820154600283015460038401546001600160a01b03928316949383169391831692166101dc6004830161419b565b604051806101ed8160108701614118565b036101f89082613ff6565b604051806102098160128801614118565b036102149082613ff6565b60405191826102268160138901614118565b036102319084613ff6565b60405193846102438160148a01614118565b0361024e9086613ff6565b60405195866102608160158b01614118565b0361026b9088613ff6565b604051978861027d8160168401614118565b03610288908a613ff6565b60170154986040519b8c9b8c5260208c015260408b015260608a0152608089016101a09052600160a01b600190038151166101a08a015260208101516101c08a0161018090526103208a016102dc91614279565b60408201518a820361019f19016101e08c01526102f99190614279565b60608201518a820361019f19016102008c01526103169190614279565b9060808101516102208b015260a08101516102408b015260c08101516102608b015260e08101516102808b01526101008101516102a08b01526101208101516102c08b01526101408101516102e08b015261016001516103008a015288810360a08a015261038391614279565b87810360c089015261039491614279565b86810360e08801526103a591614279565b8581036101008701526103b791614279565b8481036101208601526103c991614279565b8381036101408501526103db91614279565b9060ff8116151561016084015260081c60ff1615156101808301520390f35b50346101795760203660031901126101795761042461041761409a565b61041f61449a565b614424565b80f35b5034610179576101203660031901126101795761044261409a565b61044a614084565b6044356001600160a01b038116908190036106775760e4356001600160a01b03811692606435929184900361067357600080516020615705833981519152549460ff8660401c1615956001600160401b0381168015908161066b575b6001149081610661575b159081610658575b506106495767ffffffffffffffff198116600117600080516020615705833981519152558661061c575b506104eb614648565b6104f3614648565b60016000805160206156e58339815191525561050d614648565b610515614648565b61051e33614424565b600180546001600160a01b03199081166001600160a01b039384161790915560028054821693909216929092179055855416178455670de0b6b3a76400008181029180159083049091141715610608576103e8900460045560843560035560a43560055560c4356007556bffffffffffffffffffffffff60a01b6008541617600855610104356006556105ae5780f35b68ff0000000000000000196000805160206157058339815191525416600080516020615705833981519152557fc7f505b2f371ae2175ee4913f4499e1f2633a7b5936321eed1cdaeb6115181d2602060405160018152a180f35b634e487b7160e01b84526011600452602484fd5b68ffffffffffffffffff1916680100000000000000011760008051602061570583398151915255386104e2565b63f92ee8a960e01b8852600488fd5b905015386104b8565b303b1591506104b0565b8891506104a6565b8580fd5b8380fd5b50346101795780600319360112610179576020600554604051908152f35b50346101795780600319360112610179576020600454604051908152f35b5034610179576020366003190112610179576004356106d461449a565b80156106e05760055580f35b60405162461bcd60e51b81526020600482015260086024820152672930ba329032b93960c11b6044820152606490fd5b50346101795780600319360112610179576001546040516001600160a01b039091168152602090f35b50346101795760203660031901126101795760043590600a5482101561017957600a548210156107a657600a81527fc65a7bb8d6351c1cf70c95a316cc6a92839c986682d98bc35f958f4883f9d2a89091015460405160039290921b1c6001600160a01b03168152602090f35b634e487b7160e01b81526032600452602490fd5b5034610179576020366003190112610179576107d461449a565b60043560075580f35b5034610179576040366003190112610179576107f7614084565b6107ff61449a565b60048035905581546001600160a01b0319166001600160a01b039190911617815580f35b503461017957806003193601126101795760206040516502ba7def30008152f35b5034610179576020366003190112610179576020906001600160a01b0361086961409a565b16815260098252604060018060a01b0391205416604051908152f35b50346101795780600319360112610179576000805160206156c5833981519152546040516001600160a01b039091168152602090f35b5034610179576040366003190112610179576108d561409a565b602435906001600160401b03821161139857366023830112156113985781600401356109008161406d565b9261090e6040519485613ff6565b8184526024602085019260051b8201019036821161067357602401915b818310611374575050506001600160a01b038116808452600b6020526040808520905191929161095a81613fbf565b81546001600160a01b039081168252600183015481166020830152600283015481166040830152600383015416606082019081529161099b6004820161419b565b60808301526040516109bb816109b48160108601614118565b0382613ff6565b60a08301526040516011820180548083529089526020808a20908301918a915b81601f8401106111d2579360ff95938193610afb9360179754918181106111bf575b8181106111a9575b818110611193575b81811061117d575b818110611168575b818110611152575b81811061113c575b818110611126575b818110611110575b8181106110fa575b8181106110e4575b8181106110ce575b8181106110b8575b8181106110a2575b81811061108c575b818110611076575b818110611060575b81811061104a575b818110611034575b81811061101e575b818110611008575b818110610ff2575b818110610fdc575b818110610fc6575b818110610fb0575b818110610f9a575b818110610f84575b818110610f6e575b818110610f58575b818110610f42575b818110610f2c575b10610f1e575b500382613ff6565b60c0850152604051610b14816109b48160128601614118565b60e0850152604051610b2d816109b48160138601614118565b610100850152604051610b47816109b48160148601614118565b610120850152604051610b61816109b48160158601614118565b610140850152604051610b7b816109b48160168601614118565b6101608501520154818116151561018084015260081c1615906101a08215910152610ed95751600154600254604051631083f76160e01b81526001600160a01b039384169493909281169160209184916004918391165afa908115610d7c57610c1d936020938993610eba575b5060405163e6a4390560e01b81526001600160a01b039182166004820152921660248301529092839190829081906044820190565b03915afa908115610eaf578591610e80575b50845b8451811015610e7c5760018060a01b0360208260051b870101511690604051916370a0823160e01b8352806004840152602083602481895afa928315610e71578893610e3c575b506040516370a0823160e01b81526001600160a01b0385166004820152602081602481895afa908115610e31578991610dfe575b508311610dab5782610cc5575b506001915001610c32565b853b15610d9c5760405163079cc67960e41b81526001600160a01b03821660048201526024810184905288908181604481838c5af18015610da057610d87575b50506040516323b872dd60e01b81526001600160a01b03858116600483015291909116602482015260448101929092526020826064818a885af1918215610d7c5760019215610cba57610d6e9060203d8111610d75575b610d668183613ff6565b8101906143bf565b5038610cba565b503d610d5c565b6040513d89823e3d90fd5b81610d9191613ff6565b610d9c578738610d05565b8780fd5b6040513d84823e3d90fd5b60405162461bcd60e51b815260206004820152602560248201527f496e73756666696369656e742070616972206167656e7420746f6b656e2062616044820152646c616e636560d81b6064820152608490fd5b905060203d8111610e2a575b610e148183613ff6565b6020826000928101031261017957505138610cad565b503d610e0a565b6040513d8b823e3d90fd5b90925060203d8111610e6a575b610e538183613ff6565b602082600092810103126101795750519138610c79565b503d610e49565b6040513d8a823e3d90fd5b8580f35b610ea2915060203d602011610ea8575b610e9a8183613ff6565b81019061429e565b38610c2f565b503d610e90565b6040513d87823e3d90fd5b610ed2919350843d8611610ea857610e9a8183613ff6565b9138610be8565b60405162461bcd60e51b815260206004820152601a60248201527f546f6b656e206973206e6f7420677261647561746564207965740000000000006044820152606490fd5b60f81c815260200138610af3565b9260206001918b8560f01c168152019301610aed565b9260206001918b8560e81c168152019301610ae5565b9260206001918b8560e01c168152019301610add565b9260206001918b8560d81c168152019301610ad5565b9260206001918b8560d01c168152019301610acd565b9260206001918b8560c81c168152019301610ac5565b9260206001918b8560c01c168152019301610abd565b9260206001918b8560b81c168152019301610ab5565b9260206001918b8560b01c168152019301610aad565b9260206001918b8560a81c168152019301610aa5565b9260206001918b8560a01c168152019301610a9d565b9260206001918b8560981c168152019301610a95565b9260206001918b8560901c168152019301610a8d565b9260206001918b8560881c168152019301610a85565b9260206001918b8560801c168152019301610a7d565b9260206001918b8560781c168152019301610a75565b9260206001918b8560701c168152019301610a6d565b9260206001918b8560681c168152019301610a65565b9260206001918b8560601c168152019301610a5d565b9260206001918b8560581c168152019301610a55565b9260206001918b8560501c168152019301610a4d565b9260206001918b8560481c168152019301610a45565b9260206001918b8560401c168152019301610a3d565b9260206001918b8560381c168152019301610a35565b9260206001918b8560301c168152019301610a2d565b9260206001918b8560281c168152019301610a25565b9260206001918b85831c168152019301610a1d565b9260206001918b8560181c168152019301610a15565b9260206001918b8560101c168152019301610a0d565b9260206001918b8560081c168152019301610a05565b9260206001918b851681520193016109fd565b926001610400602092865460ff8116825260ff8160081c168583015260ff8160101c16604083015260ff8160181c16606083015260ff81861c16608083015260ff8160281c1660a083015260ff8160301c1660c083015260ff8160381c1660e083015260ff8160401c1661010083015260ff8160481c1661012083015260ff8160501c1661014083015260ff8160581c1661016083015260ff8160601c1661018083015260ff8160681c166101a083015260ff8160701c166101c083015260ff8160781c166101e083015260ff8160801c1661020083015260ff8160881c1661022083015260ff8160901c1661024083015260ff8160981c1661026083015260ff8160a01c1661028083015260ff8160a81c166102a083015260ff8160b01c166102c083015260ff8160b81c166102e083015260ff8160c01c1661030083015260ff8160c81c1661032083015260ff8160d01c1661034083015260ff8160d81c1661036083015260ff8160e01c1661038083015260ff8160e81c166103a083015260ff8160f01c166103c083015260f81c6103e08201520194019201916109db565b82356001600160a01b03811681036113945781526020928301920161092b565b8680fd5b8280fd5b50346101795780600319360112610179576008546040516001600160a01b039091168152602090f35b506040366003190112610179576113da614084565b6001600160a01b038116808352600b60205260408320601701549092906114039060ff166143d7565b600154600254604051631083f76160e01b81526001600160a01b0391821692909116602082600481865afa918215611b4e579160209161147a9386926122d6575b5060405163e6a4390560e01b81526001600160a01b03808916600483015290921660248301529092839190829081906044820190565b03915afa90811561217f576004929160409185916122b7575b508151630240bc6b60e21b815293849182906001600160a01b03165afa91821561217f5783908493612293575b50604080516373a9c2c560e11b815260048035908201526001600160a01b0387166024820152336044820152928390606490829088905af1908115611b4e5784928592612255575b5061151761151d9284926142bd565b93614417565b858452600b602052611536600f604086200154426142bd565b908060011b9281840460021482151715612241576115e8906201518061157f611578886115738760088f8e6040918152600b60205220015461431e565b614331565b9488614331565b94119485156122225781935b861561220c578a8952600b602052600960408a200154955b8b8a52600b602052600960408b2001558a8952600b602052600a60408a200155898852600b602052600b604089200155888752600b602052600c604088200154614417565b878652600b602052600c604087200155868552600b602052600d604086200155858452600b602052600e6040852001556121f6575b6006541015806121dd575b611638575b602060405160018152f35b828152600b602052604081209160178301805460ff8116806121cf575b1561218a5761ffff1916610100179055600154600254604051631083f76160e01b81526001600160a01b0391821693909290911690602083600481875afa928315610eaf57916116de93916020938793610eba575060405163e6a4390560e01b81526001600160a01b039182166004820152921660248301529092839190829081906044820190565b03915afa90811561217f578391612160575b5060405163c66f245560e01b81526001600160a01b0382169490602081600481895afa908115610eaf57859161212a575b506040516316d3df1560e31b8152936020856004818a5afa948515611b925786956120f6575b50803b156106735785809160246040518094819363ff6d8d0560e01b83528d60048401525af18015611b92576120e2575b50600254604051631083f76160e01b815290602090829060049082906001600160a01b03165afa908115611b92576117c991839188916120c3575b506008546001600160a01b039081169116614519565b60018060a01b03600854166006830191604051809388908054906117ec826140de565b916001811690811561209c575060011461205b575b5050600b61186995826a10313c9023b93cb83437b760a91b61183194979596975203601419810185520183613ff6565b845460405163757f6b1f60e11b815260a0600482015294601187019486948b936001600160a01b03169261187e9160a4880190614279565b86810360031901602488015260078a01614118565b8581036003190160448701528654808252968452602080852091019684915b81601f840110611eab5792602098928896959287955491818110611e99575b818110611e83575b818110611e6d575b818110611e57575b818110611e43575b818110611e2d575b818110611e17575b818110611e01575b818110611deb575b818110611dd5575b818110611dbf575b818110611da9575b818110611d93575b818110611d7d575b818110611d67575b818110611d51575b818110611d3b575b818110611d25575b818110611d0f575b818110611cf9575b818110611ce3575b818110611ccd575b818110611cb7575b818110611ca1575b818110611c8b575b818110611c75575b818110611c5f575b818110611c49575b818110611c33575b818110611c1d575b818110611c07575b10611bf8575b506064840152608483015203925af1908115610eaf57908592918391611bc1575b50600854604051636e2b763160e01b81526004810192909252909260209184916024918391906001600160a01b03165af1918215610eaf578592611b9d575b5060030180546001600160a01b0319166001600160a01b039283169081179091556002546040516370a0823160e01b81526004810188905291969216916020826024818a5afa918215611b92578692611b59575b50823b1561067357906084869283604051958694859363559e23ad60e11b855260048501528b602485015230604485015260648401525af18015611b4e57908491611b39575b5050843b156113985760405163079cc67960e41b81526001600160a01b039190911660048201526024810191909152818160448183885af18015610da057611b24575b505060207f381d54fa425631e6266af114239150fae1d5db67bb65b4fa9ecc65013107e07e91604051908152a238808061162d565b611b2f828092613ff6565b6101795780611aef565b81611b4391613ff6565b611398578238611aac565b6040513d86823e3d90fd5b9091506020813d602011611b8a575b81611b7560209383613ff6565b81010312611b8557519038611a66565b600080fd5b3d9150611b68565b6040513d88823e3d90fd5b6003919250611bba9060203d602011610ea857610e9a8183613ff6565b9190611a12565b9250506020823d602011611bf0575b81611bdd60209383613ff6565b81010312611b85576020859251906119d3565b3d9150611bd0565b60f81c835291880191386119b2565b948b60019160ff8560f01c1681520195016119ac565b948b60019160ff8560e81c1681520195016119a4565b948b60019160ff8560e01c16815201950161199c565b948b60019160ff8560d81c168152019501611994565b948b60019160ff8560d01c16815201950161198c565b948b60019160ff8560c81c168152019501611984565b948b60019160ff8560c01c16815201950161197c565b948b60019160ff8560b81c168152019501611974565b948b60019160ff8560b01c16815201950161196c565b948b60019160ff8560a81c168152019501611964565b948b60019160ff8560a01c16815201950161195c565b948b60019160ff8560981c168152019501611954565b948b60019160ff8560901c16815201950161194c565b948b60019160ff8560881c168152019501611944565b948b60019160ff8560801c16815201950161193c565b948b60019160ff8560781c168152019501611934565b948b60019160ff8560701c16815201950161192c565b948b60019160ff8560681c168152019501611924565b948b60019160ff8560601c16815201950161191c565b948b60019160ff8560581c168152019501611914565b948b60019160ff8560501c16815201950161190c565b948b60019160ff8560481c168152019501611904565b948b60019160ff8560401c1681520195016118fc565b948b60019160ff8560381c1681520195016118f4565b948b60019160ff8560301c1681520195016118ec565b948b60019160ff8560281c1681520195016118e4565b828c1c60ff168652948b01946001016118dc565b948b60019160ff8560181c1681520195016118d4565b948b60019160ff8560101c1681520195016118cc565b948b60019160ff8560081c1681520195016118c4565b60ff83168652948b01946001016118bc565b96509193509193956001610400602092885460ff8116825260ff8160081c168583015260ff8160101c16604083015260ff8160181c16606083015260ff81861c16608083015260ff8160281c1660a083015260ff8160301c1660c083015260ff8160381c1660e083015260ff8160401c1661010083015260ff8160481c1661012083015260ff8160501c1661014083015260ff8160581c1661016083015260ff8160601c1661018083015260ff8160681c166101a083015260ff8160701c166101c083015260ff8160781c166101e083015260ff8160801c1661020083015260ff8160881c1661022083015260ff8160901c1661024083015260ff8160981c1661026083015260ff8160a01c1661028083015260ff8160a81c166102a083015260ff8160b01c166102c083015260ff8160b81c166102e083015260ff8160c01c1661030083015260ff8160c81c1661032083015260ff8160d01c1661034083015260ff8160d81c1661036083015260ff8160e01c1661038083015260ff8160e81c166103a083015260ff8160f01c166103c083015260f81c6103e082015201960192018b9391889697959361189d565b915091508852836020892089905b838210612082575090918201602001905081600b611801565b6020919250806001915483858a0101520191018591612069565b600b9450602092506118319593915060ff1916828401528015150282010191819350611801565b6120dc915060203d602011610ea857610e9a8183613ff6565b386117b3565b856120ef91969296613ff6565b9338611778565b9094506020813d602011612122575b8161211260209383613ff6565b8101031261067357519338611747565b3d9150612105565b90506020813d602011612158575b8161214560209383613ff6565b81010312612154575138611721565b8480fd5b3d9150612138565b612179915060203d602011610ea857610e9a8183613ff6565b386116f0565b6040513d85823e3d90fd5b60405162461bcd60e51b815260206004820152601760248201527f74726164696e6720697320616c7265616479206f70656e0000000000000000006044820152606490fd5b5060ff8160081c1615611655565b50828152600b60205260ff601760408320015416611628565b838252600b60205242600f60408420015561161d565b8a8952600b602052600e60408a200154956115a3565b898852600b60205261223b82600d60408b200154614417565b9361158b565b634e487b7160e01b86526011600452602486fd5b61151791935061151d92506122819060403d60401161228c575b6122798183613ff6565b810190614351565b909390925090611508565b503d61226f565b90506122af91925060403d60401161228c576122798183613ff6565b9190386114c0565b6122d0915060203d602011610ea857610e9a8183613ff6565b38611493565b6122ee919250833d8511610ea857610e9a8183613ff6565b9038611444565b50346101795760203660031901126101795760043590600c5482101561017957600c548210156107a657600c90527fdf6966c971051c3d54ec59162606531493a51404a002842f56009d7e5cf4a8c701546040516001600160a01b039091168152602090f35b50346101795780600319360112610179576020600754604051908152f35b503461017957806003193601126101795761239261449a565b6000805160206156c583398151915280546001600160a01b0319811690915581906001600160a01b03167f8be0079c531659141344cd1fd0a4f28419497f9722a3daafe3b4186f6b6457e08280a380f35b50346101795780600319360112610179576020600654604051908152f35b50346101795760203660031901126101795761241b61449a565b60043560035580f35b50346101795780600319360112610179576020604051620151808152f35b50346101795760203660031901126101795761245c61409a565b6001600160a01b038082166000818152600960205260409020549091160361254e576001600160a01b03168152600960205260408082209051906001906124a283613fdb565b818060a01b0381541683520190604051908160208454918281520190819486526020862090865b81811061252f57878688816020896124e3838b0384613ff6565b0152604051928392602084019060208552518091526040840192915b81811061250d575050500390f35b82516001600160a01b03168452859450602093840193909201916001016124ff565b82546001600160a01b03168452602090930192600192830192016124c9565b60405162461bcd60e51b815260206004820152601c60248201527f557365722050726f66696c6520646f7365206e6f742065786973742e000000006044820152606490fd5b5034610179576040366003190112610179576125ad614084565b6001600160a01b038116808352600b60205260408320601701549091906125d69060ff166143d7565b600154600254604051631083f76160e01b81526001600160a01b039283169286921690602081600481855afa801561217f5761264c9460209285926128d1575b5060405163e6a4390560e01b81526001600160a01b03808916600483015290921660248301529094859190829081906044820190565b03915afa928315610da05760049360409184916128b2575b508151630240bc6b60e21b815294859182906001600160a01b03165afa938415610da05782938395612885575b5060408051636f08e17760e01b815260048035908201526001600160a01b039092166024830152336044830152909290918391829081606481015b03925af1918215610eaf578591869361285a575b506126ef6126f5928492614417565b936142bd565b91838552600b60205261270f600f604087200154426142bd565b918360011b93808504600214811517156128465790620151806127528361274c866115736127bb97600860408f8f8152600b60205220015461431e565b95614331565b94119485156128275781935b861561281157878952600b602052600960408a200154955b888a52600b602052600960408b200155878952600b602052600a60408a200155868852600b602052600b604089200155858752600b602052600c604088200154614417565b848652600b602052600c604087200155838552600b602052600d604086200155828452600b602052600e6040852001556127fa57602060405160018152f35b8152600b602052600f60404292200155388061162d565b878952600b602052600e60408a20015495612776565b868852600b60205261284082600d60408b200154614417565b9361275e565b634e487b7160e01b87526011600452602487fd5b6126ef93506126f5925061287c9060403d60401161228c576122798183613ff6565b939092506126e0565b6126cc91955060409294506128a690833d851161228c576122798183613ff6565b94909495915091612691565b6128cb915060203d602011610ea857610e9a8183613ff6565b38612664565b6128e9919250833d8511610ea857610e9a8183613ff6565b9038612616565b50346101795760e0366003190112610179576004356001600160401b038111613f4857612921903690600401614017565b6024356001600160401b03811161139857612940903690600401614017565b906044356001600160401b038111610677573660238201121561067757806004013561296b8161406d565b916129796040519384613ff6565b8183526024602084019260051b8201019036821161139457602401915b818310613f2e575050506064356001600160401b038111612154576129bf903690600401614017565b6084356001600160401b038111610673576129de903690600401614017565b9060a435926001600160401b03841161139457366023850112156113945760405193608085018581106001600160401b03821117613a54576040526084810185368211613f2a5782600401905b828210613ef7575050505060c4359360026000805160206156e58339815191525414613ee85760026000805160206156e5833981519152556004549384861115613e9257600254604051631083f76160e01b81529690602090889060049082906001600160a01b03165afa968715613e87578a97613e66575b506040516370a0823160e01b81523360048201526020816024816001600160a01b038c165afa8015613dd75782918c91613e31575b5010613df657612aec86612b06926142bd565b8a549096906001600160a01b039081169033908a166144d0565b612b1b8530336001600160a01b038a166144d0565b612b24876142e0565b6003546007546040519261104e90818501918583106001600160401b03841117613de25791612b788e612b6a606094899897966146778a39608085526080850190614279565b908382036020850152614279565b936040820152015203908af0978815610e31576040516318160ddd60e01b8152976020896004816001600160a01b038e165afa918215613dd7578a998c93613d9c575b506001546040516364e329cb60e11b81526001600160a01b039c8d1660048201528a8d1660248201529b168b6044818f5a94602095f19a8b15613d91578c9b613d70575b50600254612c1c9084906001600160a01b03908116908d16614519565b6005548015613d5c57666a94d74f4300000469021e19e0c9bab240000081029080820469021e19e0c9bab24000001490151715613d485783612c5d91614331565b670de0b6b3a7640000810290808204670de0b6b3a76400001490151715613d48576127109004908c60408c606460018060a01b03600254169183519485938492631746ffa760e31b845260018060a01b031660048401528a60248401528860448401525af18015613d3b57613d1d575b50612cd7836142e0565b93612ce28382614331565b918360011b9484860460021485151715613d0857938f97938f97938f9b97938c9b97612d0e8584614331565b9660206040519e8f90612d2082613f8d565b60018060a01b03168152015260408d015260608c015260808b015260a08a015260c089015260e0880152856101008801528561012088015261014087015242610160870152815160208301519160606040850151940151946040519a612d858c613fbf565b338c526001600160a01b039a8b166020808e01918252988c166040808f0191825260608f019b8c5260808f019c8d5260a08f019390935260c08e019390935260e08d01939093526101008c01939093526101208b01939093526101408a0193909352610160890193909352600161018089018190526101a089018e90528b88168e52600b8552928d20885181546001600160a01b0319908116918a169190911782559251938101805484169489169490941790935551600283018054831691881691909117905592516003820180548516918716919091179055925180516004850180549094169516949094179091558201518051919291906001600160401b0382116136ed578190612e9b60058601546140de565b601f8111613cd5575b50602090601f8311600114613c6c578b92613c61575b50508160011b916000199060031b1c19161760058301555b60408101518051906001600160401b0382116136ed578190612ef760068601546140de565b601f8111613c2e575b50602090601f8311600114613bc5578b92613bba575b50508160011b916000199060031b1c19161760068301555b60608101518051906001600160401b0382116136ed57612f5160078501546140de565b601f8111613b87575b50602090601f8311600114613b1a576101609392918b9183613b0f575b50508160011b916000199060031b1c19161760078401555b6080810151600884015560a0810151600984015560c0810151600a84015560e0810151600b840155610100810151600c840155610120810151600d840155610140810151600e8401550151600f82015560a08201518051906001600160401b038211613a5457819061300460108501546140de565b601f8111613adc575b50602090601f8311600114613a73578a92613a68575b50508160011b916000199060031b1c19161760108201555b60c08201518051906001600160401b038211613a5457600160401b8211613a54576020906011840154836011860155808410613a05575b5001906011830189526020892090895b8160051c81106139c65750601f198116810380613979575b505050506012810160e08301518051906001600160401b0382116136ed5781906130c484546140de565b601f8111613949575b50602090601f83116001146138e6578b926138db575b50508160011b916000199060031b1c19161790555b601381016101008301518051906001600160401b0382116136ed57819061311f84546140de565b601f81116138ab575b50602090601f8311600114613848578b9261383d575b50508160011b916000199060031b1c19161790555b601481016101208301518051906001600160401b0382116136ed57819061317a84546140de565b601f811161380d575b50602090601f83116001146137aa578b9261379f575b50508160011b916000199060031b1c19161790555b601581016101408301518051906001600160401b0382116136ed5781906131d584546140de565b601f811161376f575b50602090601f831160011461370c578b92613701575b50508160011b916000199060031b1c19161790555b601681016101608301518051906001600160401b0382116136ed5761322e83546140de565b601f81116136b2575b50602090601f8311600114613648579180601794926101a096948d9261363d575b50508160011b916000199060031b1c19161790555b61018084015191018054929093015161ffff1990921660ff911515919091161790151560081b61ff0016179055600c54600160401b8110156135de57906132bd826001889401600c55600c6140b0565b81546001600160a01b0360039290921b82811b1990911687831690911b1790915533600081815260096020526040902054909116036134eb576133b8604091338452600960205261331b60018060a01b03871660018587200161437e565b600c5483518181529095613377918391906001600160a01b038b811691908b16907f714aa39317ad9a7a7a99db52b44490da5d068a0b2710fffb1a1282ad3cadae1f90602090a36002546001600160a01b039081169116614519565b60025483516373a9c2c560e11b815260048101929092526001600160a01b038781166024840152306044840152919485939190921691839182906064820190565b03925af18015610eaf576134cd575b506040516370a0823160e01b81523060048201526020816024816001600160a01b0387165afa908115610eaf57859161349a575b5060405163a9059cbb60e01b81523360048201526024810191909152602081604481886001600160a01b0388165af18015610eaf576134799394955061347d575b5060016000805160206156e583398151915255604080516001600160a01b0394851681529490931660208501529183019190915281906060820190565b0390f35b6134959060203d602011610d7557610d668183613ff6565b61343c565b90506020813d6020116134c5575b816134b560209383613ff6565b81010312612154575160206133fb565b3d91506134a8565b6134e59060403d60401161228c576122798183613ff6565b506133c7565b90506040516134f981613fdb565b3380825260606020808401918252918852600990915260408720915182546001600160a01b0319166001600160a01b039190911617825551805191600101906001600160401b03831161362957600160401b831161362957602090825484845580851061360f575b500190875260208720875b8381106135f25750505050600a54600160401b8110156135de576133b8869261359f83600160409501600a55600a6140b0565b81546001600160a01b0360039290921b82811b19909116339182901b1790925590855260096020528385206135d99188169060010161437e565b61331b565b634e487b7160e01b86526041600452602486fd5b82516001600160a01b03168183015560209092019160010161356c565b838a52828a20613623918101908601614367565b38613561565b634e487b7160e01b88526041600452602488fd5b015190503880613258565b838b52818b209190601f1984168c5b81811061369a57509260019285926101a098966017989610613681575b505050811b01905561326d565b015160001960f88460031b161c19169055388080613674565b92936020600181928786015181550195019301613657565b6136dd90848c5260208c20601f850160051c810191602086106136e3575b601f0160051c0190614367565b38613237565b90915081906136d0565b634e487b7160e01b8a52604160045260248afd5b0151905038806131f4565b848c52818c209250601f1984168c5b818110613757575090846001959493921061373e575b505050811b019055613209565b015160001960f88460031b161c19169055388080613731565b9293602060018192878601518155019501930161371b565b61379990858d5260208d20601f850160051c810191602086106136e357601f0160051c0190614367565b386131de565b015190503880613199565b848c52818c209250601f1984168c5b8181106137f557509084600195949392106137dc575b505050811b0190556131ae565b015160001960f88460031b161c191690553880806137cf565b929360206001819287860151815501950193016137b9565b61383790858d5260208d20601f850160051c810191602086106136e357601f0160051c0190614367565b38613183565b01519050388061313e565b848c52818c209250601f1984168c5b818110613893575090846001959493921061387a575b505050811b019055613153565b015160001960f88460031b161c1916905538808061386d565b92936020600181928786015181550195019301613857565b6138d590858d5260208d20601f850160051c810191602086106136e357601f0160051c0190614367565b38613128565b0151905038806130e3565b848c52818c209250601f1984168c5b8181106139315750908460019594939210613918575b505050811b0190556130f8565b015160001960f88460031b161c1916905538808061390b565b929360206001819287860151815501950193016138f5565b61397390858d5260208d20601f850160051c810191602086106136e357601f0160051c0190614367565b386130cd565b928a938b5b8181106139965750505060051c01553880808061309a565b90919460206139bc6001928460ff8a5116919060ff809160031b9316831b921b19161790565b960192910161397e565b8a8b5b602081106139de575083820155600101613082565b855190959160019160209160ff60038a901b81811b199092169216901b17920195016139c9565b613a3290601186018c52838c20601f80870160051c82019281881680613a38575b500160051c0190614367565b38613072565b600019850190815490600019908a0360031b1c16905538613a26565b634e487b7160e01b89526041600452602489fd5b015190503880613023565b601085018b52818b209250601f1984168b5b818110613ac45750908460019594939210613aab575b505050811b01601082015561303b565b015160001960f88460031b161c19169055388080613a9b565b92936020600181928786015181550195019301613a85565b613b0990601086018c5260208c20601f850160051c810191602086106136e357601f0160051c0190614367565b3861300d565b015190503880612f77565b600785018b52818b209190601f1984168c5b818110613b6f575091600193918561016097969410613b56575b505050811b016007840155612f8f565b015160001960f88460031b161c19169055388080613b46565b92936020600181928786015181550195019301613b2c565b613bb490600786018c5260208c20601f850160051c810191602086106136e357601f0160051c0190614367565b38612f5a565b015190503880612f16565b600686018c52818c209250601f1984168c5b818110613c165750908460019594939210613bfd575b505050811b016006830155612f2e565b015160001960f88460031b161c19169055388080613bed565b92936020600181928786015181550195019301613bd7565b613c5b90600687018d5260208d20601f850160051c810191602086106136e357601f0160051c0190614367565b38612f00565b015190503880612eba565b600586018c52818c209250601f1984168c5b818110613cbd5750908460019594939210613ca4575b505050811b016005830155612ed2565b015160001960f88460031b161c19169055388080613c94565b92936020600181928786015181550195019301613c7e565b613d0290600587018d5260208d20601f850160051c810191602086106136e357601f0160051c0190614367565b38612ea4565b50634e487b7160e01b8f52601160045260248ffd5b613d359060403d60401161228c576122798183613ff6565b50612ccd565b8e604051903d90823e3d90fd5b634e487b7160e01b8d52601160045260248dfd5b634e487b7160e01b8d52601260045260248dfd5b613d8a919b5060203d602011610ea857610e9a8183613ff6565b9938612bff565b6040513d8e823e3d90fd5b995091506020893d602011613dcf575b81613db960209383613ff6565b81010312613dcb578998519138612bbb565b8a80fd5b3d9150613dac565b6040513d8d823e3d90fd5b634e487b7160e01b8f52604160045260248ffd5b60405162461bcd60e51b8152602060048201526013602482015272125b9cdd59999a58da595b9d08185b5bdd5b9d606a1b6044820152606490fd5b9150506020813d602011613e5e575b81613e4d60209383613ff6565b81010312613dcb5781905138612ad9565b3d9150613e40565b613e8091975060203d602011610ea857610e9a8183613ff6565b9538612aa4565b6040513d8c823e3d90fd5b60405162461bcd60e51b815260206004820152602860248201527f507572636861736520616d6f756e74206d7573742062652067726561746572206044820152677468616e2066656560c01b6064820152608490fd5b633ee5aeb560e01b8852600488fd5b81356001600160401b038111613f2657602091613f1b839260043691890101614017565b815201910190612a2b565b8b80fd5b8980fd5b823560ff81168103610d9c57815260209283019201612996565b5080fd5b50346101795780600319360112610179576020600354604051908152f35b503461017957602036600319011261017957613f8461449a565b60043560065580f35b61018081019081106001600160401b03821117613fa957604052565b634e487b7160e01b600052604160045260246000fd5b6101c081019081106001600160401b03821117613fa957604052565b604081019081106001600160401b03821117613fa957604052565b90601f801991011681019081106001600160401b03821117613fa957604052565b81601f82011215611b85578035906001600160401b038211613fa9576040519261404b601f8401601f191660200185613ff6565b82845260208383010111611b8557816000926020809301838601378301015290565b6001600160401b038111613fa95760051b60200190565b602435906001600160a01b0382168203611b8557565b600435906001600160a01b0382168203611b8557565b80548210156140c85760005260206000200190600090565b634e487b7160e01b600052603260045260246000fd5b90600182811c9216801561410e575b60208310146140f857565b634e487b7160e01b600052602260045260246000fd5b91607f16916140ed565b60009291815491614128836140de565b808352926001811690811561417e575060011461414457505050565b60009081526020812093945091925b838310614164575060209250010190565b600181602092949394548385870101520191019190614153565b915050602093945060ff929192191683830152151560051b010190565b906040516141a881613f8d565b610160600b829460018060a01b0381541684526040516141cf816109b48160018601614118565b60208501526040516141e8816109b48160028601614118565b6040850152604051614201816109b48160038601614118565b606085015260048101546080850152600581015460a0850152600681015460c0850152600781015460e085015260088101546101008501526009810154610120850152600a8101546101408501520154910152565b60005b8381106142695750506000910152565b8181015183820152602001614259565b9060209161429281518092818552858086019101614256565b601f01601f1916010190565b90816020910312611b8557516001600160a01b0381168103611b855790565b919082039182116142ca57565b634e487b7160e01b600052601160045260246000fd5b9061431c60246040518094630333ab7160e51b602083015261430b8151809260208686019101614256565b81010301601f198101845283613ff6565b565b818102929181159184041417156142ca57565b811561433b570490565b634e487b7160e01b600052601260045260246000fd5b9190826040910312611b85576020825192015190565b818110614372575050565b60008155600101614367565b8054600160401b811015613fa95761439b916001820181556140b0565b81546001600160a01b0393841660039290921b91821b9390911b1916919091179055565b90816020910312611b8557518015158103611b855790565b156143de57565b60405162461bcd60e51b8152602060048201526011602482015270546f6b656e206e6f742074726164696e6760781b6044820152606490fd5b919082018092116142ca57565b6001600160a01b03168015614484576000805160206156c583398151915280546001600160a01b0319811683179091556001600160a01b03167f8be0079c531659141344cd1fd0a4f28419497f9722a3daafe3b4186f6b6457e0600080a3565b631e4fbdf760e01b600052600060045260246000fd5b6000805160206156c5833981519152546001600160a01b031633036144bb57565b63118cdaa760e01b6000523360045260246000fd5b6040516323b872dd60e01b60208201526001600160a01b03928316602482015292909116604483015260648083019390935291815261431c91614514608483613ff6565b6145e1565b60405163095ea7b360e01b60208083019182526001600160a01b038516602484015260448084019690965294825292939092600090614559606486613ff6565b84519082855af16000513d826145bc575b50501561457657505050565b60405163095ea7b360e01b60208201526001600160a01b0390931660248401526000604480850191909152835261431c92614514906145b6606482613ff6565b826145e1565b9091506145d957506001600160a01b0381163b15155b388061456a565b6001146145d2565b906000602091828151910182855af11561463c576000513d61463357506001600160a01b0381163b155b6146125750565b635274afe760e01b60009081526001600160a01b0391909116600452602490fd5b6001141561460b565b6040513d6000823e3d90fd5b60ff6000805160206157058339815191525460401c161561466557565b631afcd79f60e31b60005260046000fdfe60806040523461048c5761104e8038038061001981610491565b92833981019060808183031261048c5780516001600160401b03811161048c57826100459183016104b6565b602082015190926001600160401b03821161048c576100659183016104b6565b90606060408201519101519033156104765760008054336001600160a01b0319821681178355916001600160a01b03909116907f8be0079c531659141344cd1fd0a4f28419497f9722a3daafe3b4186f6b6457e09080a383516001600160401b03811161037f57600254600181811c9116801561046c575b602082101461035f57601f8111610407575b50602094601f82116001146103a057948192939495600092610395575b50508160011b916000199060031b1c1916176002555b82516001600160401b03811161037f57600354600181811c91168015610375575b602082101461035f57601f81116102fa575b506020601f82116001146102935781929394600092610288575b50508160011b916000199060031b1c1916176003555b670de0b6b3a7640000810290808204670de0b6b3a7640000149015171561027257806001553360005260066020526040600020553360005260086020526040600020600160ff198254161790553060005260086020526040600020600160ff198254161790558060045560015490818102818104831482151715610272577fff3dd5e80294197918c284bbfc3dadd97d0b40ce92106110946329088f80068a91606460209204600555604051908152a160405190815260007fddf252ad1be2c89b69c2b068fc378daa952ba7f163c4a11628f55a4df523b3ef60203393a3604051610b2c90816105228239f35b634e487b7160e01b600052601160045260246000fd5b01519050388061016f565b601f198216906003600052806000209160005b8181106102e2575095836001959697106102c9575b505050811b01600355610185565b015160001960f88460031b161c191690553880806102bb565b9192602060018192868b0151815501940192016102a6565b60036000527fc2575a0e9e593c00f959f8c92f12db2869c3395a3b0502d05e2516446f71f85b601f830160051c81019160208410610355575b601f0160051c01905b8181106103495750610155565b6000815560010161033c565b9091508190610333565b634e487b7160e01b600052602260045260246000fd5b90607f1690610143565b634e487b7160e01b600052604160045260246000fd5b01519050388061010c565b601f198216956002600052806000209160005b8881106103ef575083600195969798106103d6575b505050811b01600255610122565b015160001960f88460031b161c191690553880806103c8565b919260206001819286850151815501940192016103b3565b60026000527f405787fa12a823e0f2b7631cc41b3ba8828b3321ca811111fa75cd3aa3bb5ace601f830160051c81019160208410610462575b601f0160051c01905b81811061045657506100ef565b60008155600101610449565b9091508190610440565b90607f16906100dd565b631e4fbdf760e01b600052600060045260246000fd5b600080fd5b6040519190601f01601f191682016001600160401b0381118382101761037f57604052565b81601f8201121561048c578051906001600160401b03821161037f576104e5601f8301601f1916602001610491565b928284526020838301011161048c5760005b82811061050c57505060206000918301015290565b806020809284010151828287010152016104f756fe608080604052600436101561001357600080fd5b60003560e01c90816306fdde031461067c57508063095ea7b31461065657806318160ddd1461063857806323b872dd146105d2578063313ce567146105b657806370a082311461057c578063715018a6146105235780637437681e1461050557806379cc67901461044a5780638da5cb5b1461042157806395d89b4114610300578063a9059cbb146102cf578063c2d0ffca14610252578063db4cf1e0146101ae578063dd62ed3e1461015d5763f2fde38b146100cf57600080fd5b34610158576020366003190112610158576100e8610798565b6100f0610acd565b6001600160a01b0316801561014257600080546001600160a01b03198116831782556001600160a01b0316907f8be0079c531659141344cd1fd0a4f28419497f9722a3daafe3b4186f6b6457e09080a3005b631e4fbdf760e01b600052600060045260246000fd5b600080fd5b3461015857604036600319011261015857610176610798565b61017e6107ae565b6001600160a01b039182166000908152600760209081526040808320949093168252928352819020549051908152f35b34610158576020366003190112610158576101c7610798565b6101cf610acd565b6001600160a01b031680156101f9576000908152600860205260409020805460ff19166001179055005b60405162461bcd60e51b815260206004820152602b60248201527f45524332303a204578636c756465204d61782054782066726f6d20746865207a60448201526a65726f206164647265737360a81b6064820152608490fd5b346101585760203660031901126101585760043561026e610acd565b806004556001548082029082820414821517156102b9577fff3dd5e80294197918c284bbfc3dadd97d0b40ce92106110946329088f80068a91606460209204600555604051908152a1005b634e487b7160e01b600052601160045260246000fd5b34610158576040366003190112610158576102f56102eb610798565b60243590336108d9565b602060405160018152f35b346101585760003660031901126101585760405160006003548060011c90600181168015610417575b602083108114610403578285529081156103e75750600114610390575b50819003601f01601f191681019067ffffffffffffffff82118183101761037a576103768291826040528261074f565b0390f35b634e487b7160e01b600052604160045260246000fd5b905060036000527fc2575a0e9e593c00f959f8c92f12db2869c3395a3b0502d05e2516446f71f85b6000905b8282106103d157506020915082010182610346565b60018160209254838588010152019101906103bc565b90506020925060ff191682840152151560051b82010182610346565b634e487b7160e01b84526022600452602484fd5b91607f1691610329565b34610158576000366003190112610158576000546040516001600160a01b039091168152602090f35b3461015857604036600319011261015857610463610798565b6024359061046f610acd565b6001600160a01b031680156104ce577fddf252ad1be2c89b69c2b068fc378daa952ba7f163c4a11628f55a4df523b3ef6020600093838552600682526104b98160408720546107c4565b848652600683526040862055604051908152a3005b60405162461bcd60e51b815260206004820152600f60248201526e496e76616c6964206164647265737360881b6044820152606490fd5b34610158576000366003190112610158576020600454604051908152f35b346101585760003660031901126101585761053c610acd565b600080546001600160a01b0319811682556001600160a01b03167f8be0079c531659141344cd1fd0a4f28419497f9722a3daafe3b4186f6b6457e08280a3005b34610158576020366003190112610158576001600160a01b0361059d610798565b1660005260066020526020604060002054604051908152f35b3461015857600036600319011261015857602060405160128152f35b34610158576060366003190112610158576102f56105ee610798565b6106306105f96107ae565b6106076044358092856108d9565b6001600160a01b03831660009081526007602090815260408083203384529091529020546107c4565b9033906107d1565b34610158576000366003190112610158576020600154604051908152f35b34610158576040366003190112610158576102f5610672610798565b60243590336107d1565b346101585760003660031901126101585760006002548060011c90600181168015610745575b602083108114610403578285529081156103e757506001146106ee5750819003601f01601f191681019067ffffffffffffffff82118183101761037a576103768291826040528261074f565b905060026000527f405787fa12a823e0f2b7631cc41b3ba8828b3321ca811111fa75cd3aa3bb5ace6000905b82821061072f57506020915082010182610346565b600181602092548385880101520191019061071a565b91607f16916106a2565b91909160208152825180602083015260005b818110610782575060409293506000838284010152601f8019910116010190565b8060208092870101516040828601015201610761565b600435906001600160a01b038216820361015857565b602435906001600160a01b038216820361015857565b919082039182116102b957565b6001600160a01b0316908115610888576001600160a01b03169182156108385760207f8c5be1e5ebec7d5bd14f71427d1e84f3dd0314c0f7b2291e5b200ac8c7c3b925918360005260078252604060002085600052825280604060002055604051908152a3565b60405162461bcd60e51b815260206004820152602260248201527f45524332303a20617070726f766520746f20746865207a65726f206164647265604482015261737360f01b6064820152608490fd5b60405162461bcd60e51b8152602060048201526024808201527f45524332303a20617070726f76652066726f6d20746865207a65726f206164646044820152637265737360e01b6064820152608490fd5b6001600160a01b0316908115610a7a576001600160a01b0316918215610a295780156109d25781600052600860205260ff6040600020541615610993575b81600052600660205261092f816040600020546107c4565b8260005260066020526040600020558260005260066020526040600020548181018091116102b9577fddf252ad1be2c89b69c2b068fc378daa952ba7f163c4a11628f55a4df523b3ef916020918560005260068352604060002055604051908152a3565b6005548111156109175760405162461bcd60e51b815260206004820152600d60248201526c08af0c6cacac8e6409ac2f0a8f609b1b6044820152606490fd5b60405162461bcd60e51b815260206004820152602960248201527f5472616e7366657220616d6f756e74206d7573742062652067726561746572206044820152687468616e207a65726f60b81b6064820152608490fd5b60405162461bcd60e51b815260206004820152602360248201527f45524332303a207472616e7366657220746f20746865207a65726f206164647260448201526265737360e81b6064820152608490fd5b60405162461bcd60e51b815260206004820152602560248201527f45524332303a207472616e736665722066726f6d20746865207a65726f206164604482015264647265737360d81b6064820152608490fd5b6000546001600160a01b03163303610ae157565b63118cdaa760e01b6000523360045260246000fdfea26469706673582212200643c04ab660aeeeb3b46a368f73f02a55beed44ab289a2b51181b75b207672f64736f6c634300081c00339016d09d72d40fdae2fd8ceac6b6234c7706214fd39c1cd1e609a0528c1993009b779b17422d0df92223018b32b4d1fa46e071723d6817e2486d003becc55f00f0c57e16840df040f15088dc2f81fe391c3923bec73e23a9662efc9c229c6a00a2646970667358221220bfbdf345c21c71c3596a5bc9c638c210363ba6083326cf2d5ac7e971b316d22764736f6c634300081c0033",
  "linkReferences": {},
  "deployedLinkReferences": {}
}