{
  "_format": "hh-sol-artifact-1",
  "contractName": "FERC20",
  "sourceName": "contracts/fun/FERC20.sol",
  "abi": [
    {
      "inputs": [
        {
          "internalType": "string",
          "name": "name_",
          "type": "string"
        },
        {
          "internalType": "string",
          "name": "symbol_",
          "type": "string"
        },
        {
          "internalType": "uint256",
          "name": "supply",
          "type": "uint256"
        },
        {
          "internalType": "uint256",
          "name": "_maxTx",
          "type": "uint256"
        }
      ],
      "stateMutability": "nonpayable",
      "type": "constructor"
    },
    {
      "inputs": [
        {
          "internalType": "address",
          "name": "owner",
          "type": "address"
        }
      ],
      "name": "OwnableInvalidOwner",
      "type": "error"
    },
    {
      "inputs": [
        {
          "internalType": "address",
          "name": "account",
          "type": "address"
        }
      ],
      "name": "OwnableUnauthorizedAccount",
      "type": "error"
    },
    {
      "anonymous": false,
      "inputs": [
        {
          "indexed": true,
          "internalType": "address",
          "name": "owner",
          "type": "address"
        },
        {
          "indexed": true,
          "internalType": "address",
          "name": "spender",
          "type": "address"
        },
        {
          "indexed": false,
          "internalType": "uint256",
          "name": "value",
          "type": "uint256"
        }
      ],
      "name": "Approval",
      "type": "event"
    },
    {
      "anonymous": false,
      "inputs": [
        {
          "indexed": false,
          "internalType": "uint256",
          "name": "_maxTx",
          "type": "uint256"
        }
      ],
      "name": "MaxTxUpdated",
      "type": "event"
    },
    {
      "anonymous": false,
      "inputs": [
        {
          "indexed": true,
          "internalType": "address",
          "name": "previousOwner",
          "type": "address"
        },
        {
          "indexed": true,
          "internalType": "address",
          "name": "newOwner",
          "type": "address"
        }
      ],
      "name": "OwnershipTransferred",
      "type": "event"
    },
    {
      "anonymous": false,
      "inputs": [
        {
          "indexed": true,
          "internalType": "address",
          "name": "from",
          "type": "address"
        },
        {
          "indexed": true,
          "internalType": "address",
          "name": "to",
          "type": "address"
        },
        {
          "indexed": false,
          "internalType": "uint256",
          "name": "value",
          "type": "uint256"
        }
      ],
      "name": "Transfer",
      "type": "event"
    },
    {
      "inputs": [
        {
          "internalType": "address",
          "name": "owner",
          "type": "address"
        },
        {
          "internalType": "address",
          "name": "spender",
          "type": "address"
        }
      ],
      "name": "allowance",
      "outputs": [
        {
          "internalType": "uint256",
          "name": "",
          "type": "uint256"
        }
      ],
      "stateMutability": "view",
      "type": "function"
    },
    {
      "inputs": [
        {
          "internalType": "address",
          "name": "spender",
          "type": "address"
        },
        {
          "internalType": "uint256",
          "name": "amount",
          "type": "uint256"
        }
      ],
      "name": "approve",
      "outputs": [
        {
          "internalType": "bool",
          "name": "",
          "type": "bool"
        }
      ],
      "stateMutability": "nonpayable",
      "type": "function"
    },
    {
      "inputs": [
        {
          "internalType": "address",
          "name": "account",
          "type": "address"
        }
      ],
      "name": "balanceOf",
      "outputs": [
        {
          "internalType": "uint256",
          "name": "",
          "type": "uint256"
        }
      ],
      "stateMutability": "view",
      "type": "function"
    },
    {
      "inputs": [
        {
          "internalType": "address",
          "name": "user",
          "type": "address"
        },
        {
          "internalType": "uint256",
          "name": "amount",
          "type": "uint256"
        }
      ],
      "name": "burnFrom",
      "outputs": [],
      "stateMutability": "nonpayable",
      "type": "function"
    },
    {
      "inputs": [],
      "name": "decimals",
      "outputs": [
        {
          "internalType": "uint8",
          "name": "",
          "type": "uint8"
        }
      ],
      "stateMutability": "pure",
      "type": "function"
    },
    {
      "inputs": [
        {
          "internalType": "address",
          "name": "user",
          "type": "address"
        }
      ],
      "name": "excludeFromMaxTx",
      "outputs": [],
      "stateMutability": "nonpayable",
      "type": "function"
    },
    {
      "inputs": [],
      "name": "maxTx",
      "outputs": [
        {
          "internalType": "uint256",
          "name": "",
          "type": "uint256"
        }
      ],
      "stateMutability": "view",
      "type": "function"
    },
    {
      "inputs": [],
      "name": "name",
      "outputs": [
        {
          "internalType": "string",
          "name": "",
          "type": "string"
        }
      ],
      "stateMutability": "view",
      "type": "function"
    },
    {
      "inputs": [],
      "name": "owner",
      "outputs": [
        {
          "internalType": "address",
          "name": "",
          "type": "address"
        }
      ],
      "stateMutability": "view",
      "type": "function"
    },
    {
      "inputs": [],
      "name": "renounceOwnership",
      "outputs": [],
      "stateMutability": "nonpayable",
      "type": "function"
    },
    {
      "inputs": [],
      "name": "symbol",
      "outputs": [
        {
          "internalType": "string",
          "name": "",
          "type": "string"
        }
      ],
      "stateMutability": "view",
      "type": "function"
    },
    {
      "inputs": [],
      "name": "totalSupply",
      "outputs": [
        {
          "internalType": "uint256",
          "name": "",
          "type": "uint256"
        }
      ],
      "stateMutability": "view",
      "type": "function"
    },
    {
      "inputs": [
        {
          "internalType": "address",
          "name": "recipient",
          "type": "address"
        },
        {
          "internalType": "uint256",
          "name": "amount",
          "type": "uint256"
        }
      ],
      "name": "transfer",
      "outputs": [
        {
          "internalType": "bool",
          "name": "",
          "type": "bool"
        }
      ],
      "stateMutability": "nonpayable",
      "type": "function"
    },
    {
      "inputs": [
        {
          "internalType": "address",
          "name": "sender",
          "type": "address"
        },
        {
          "internalType": "address",
          "name": "recipient",
          "type": "address"
        },
        {
          "internalType": "uint256",
          "name": "amount",
          "type": "uint256"
        }
      ],
      "name": "transferFrom",
      "outputs": [
        {
          "internalType": "bool",
          "name": "",
          "type": "bool"
        }
      ],
      "stateMutability": "nonpayable",
      "type": "function"
    },
    {
      "inputs": [
        {
          "internalType": "address",
          "name": "newOwner",
          "type": "address"
        }
      ],
      "name": "transferOwnership",
      "outputs": [],
      "stateMutability": "nonpayable",
      "type": "function"
    },
    {
      "inputs": [
        {
          "internalType": "uint256",
          "name": "_maxTx",
          "type": "uint256"
        }
      ],
      "name": "updateMaxTx",
      "outputs": [],
      "stateMutability": "nonpayable",
      "type": "function"
    }
  ],
  "bytecode": "0x60806040523461048c5761104e8038038061001981610491565b92833981019060808183031261048c5780516001600160401b03811161048c57826100459183016104b6565b602082015190926001600160401b03821161048c576100659183016104b6565b90606060408201519101519033156104765760008054336001600160a01b0319821681178355916001600160a01b03909116907f8be0079c531659141344cd1fd0a4f28419497f9722a3daafe3b4186f6b6457e09080a383516001600160401b03811161037f57600254600181811c9116801561046c575b602082101461035f57601f8111610407575b50602094601f82116001146103a057948192939495600092610395575b50508160011b916000199060031b1c1916176002555b82516001600160401b03811161037f57600354600181811c91168015610375575b602082101461035f57601f81116102fa575b506020601f82116001146102935781929394600092610288575b50508160011b916000199060031b1c1916176003555b670de0b6b3a7640000810290808204670de0b6b3a7640000149015171561027257806001553360005260066020526040600020553360005260086020526040600020600160ff198254161790553060005260086020526040600020600160ff198254161790558060045560015490818102818104831482151715610272577fff3dd5e80294197918c284bbfc3dadd97d0b40ce92106110946329088f80068a91606460209204600555604051908152a160405190815260007fddf252ad1be2c89b69c2b068fc378daa952ba7f163c4a11628f55a4df523b3ef60203393a3604051610b2c90816105228239f35b634e487b7160e01b600052601160045260246000fd5b01519050388061016f565b601f198216906003600052806000209160005b8181106102e2575095836001959697106102c9575b505050811b01600355610185565b015160001960f88460031b161c191690553880806102bb565b9192602060018192868b0151815501940192016102a6565b60036000527fc2575a0e9e593c00f959f8c92f12db2869c3395a3b0502d05e2516446f71f85b601f830160051c81019160208410610355575b601f0160051c01905b8181106103495750610155565b6000815560010161033c565b9091508190610333565b634e487b7160e01b600052602260045260246000fd5b90607f1690610143565b634e487b7160e01b600052604160045260246000fd5b01519050388061010c565b601f198216956002600052806000209160005b8881106103ef575083600195969798106103d6575b505050811b01600255610122565b015160001960f88460031b161c191690553880806103c8565b919260206001819286850151815501940192016103b3565b60026000527f405787fa12a823e0f2b7631cc41b3ba8828b3321ca811111fa75cd3aa3bb5ace601f830160051c81019160208410610462575b601f0160051c01905b81811061045657506100ef565b60008155600101610449565b9091508190610440565b90607f16906100dd565b631e4fbdf760e01b600052600060045260246000fd5b600080fd5b6040519190601f01601f191682016001600160401b0381118382101761037f57604052565b81601f8201121561048c578051906001600160401b03821161037f576104e5601f8301601f1916602001610491565b928284526020838301011161048c5760005b82811061050c57505060206000918301015290565b806020809284010151828287010152016104f756fe608080604052600436101561001357600080fd5b60003560e01c90816306fdde031461067c57508063095ea7b31461065657806318160ddd1461063857806323b872dd146105d2578063313ce567146105b657806370a082311461057c578063715018a6146105235780637437681e1461050557806379cc67901461044a5780638da5cb5b1461042157806395d89b4114610300578063a9059cbb146102cf578063c2d0ffca14610252578063db4cf1e0146101ae578063dd62ed3e1461015d5763f2fde38b146100cf57600080fd5b34610158576020366003190112610158576100e8610798565b6100f0610acd565b6001600160a01b0316801561014257600080546001600160a01b03198116831782556001600160a01b0316907f8be0079c531659141344cd1fd0a4f28419497f9722a3daafe3b4186f6b6457e09080a3005b631e4fbdf760e01b600052600060045260246000fd5b600080fd5b3461015857604036600319011261015857610176610798565b61017e6107ae565b6001600160a01b039182166000908152600760209081526040808320949093168252928352819020549051908152f35b34610158576020366003190112610158576101c7610798565b6101cf610acd565b6001600160a01b031680156101f9576000908152600860205260409020805460ff19166001179055005b60405162461bcd60e51b815260206004820152602b60248201527f45524332303a204578636c756465204d61782054782066726f6d20746865207a60448201526a65726f206164647265737360a81b6064820152608490fd5b346101585760203660031901126101585760043561026e610acd565b806004556001548082029082820414821517156102b9577fff3dd5e80294197918c284bbfc3dadd97d0b40ce92106110946329088f80068a91606460209204600555604051908152a1005b634e487b7160e01b600052601160045260246000fd5b34610158576040366003190112610158576102f56102eb610798565b60243590336108d9565b602060405160018152f35b346101585760003660031901126101585760405160006003548060011c90600181168015610417575b602083108114610403578285529081156103e75750600114610390575b50819003601f01601f191681019067ffffffffffffffff82118183101761037a576103768291826040528261074f565b0390f35b634e487b7160e01b600052604160045260246000fd5b905060036000527fc2575a0e9e593c00f959f8c92f12db2869c3395a3b0502d05e2516446f71f85b6000905b8282106103d157506020915082010182610346565b60018160209254838588010152019101906103bc565b90506020925060ff191682840152151560051b82010182610346565b634e487b7160e01b84526022600452602484fd5b91607f1691610329565b34610158576000366003190112610158576000546040516001600160a01b039091168152602090f35b3461015857604036600319011261015857610463610798565b6024359061046f610acd565b6001600160a01b031680156104ce577fddf252ad1be2c89b69c2b068fc378daa952ba7f163c4a11628f55a4df523b3ef6020600093838552600682526104b98160408720546107c4565b848652600683526040862055604051908152a3005b60405162461bcd60e51b815260206004820152600f60248201526e496e76616c6964206164647265737360881b6044820152606490fd5b34610158576000366003190112610158576020600454604051908152f35b346101585760003660031901126101585761053c610acd565b600080546001600160a01b0319811682556001600160a01b03167f8be0079c531659141344cd1fd0a4f28419497f9722a3daafe3b4186f6b6457e08280a3005b34610158576020366003190112610158576001600160a01b0361059d610798565b1660005260066020526020604060002054604051908152f35b3461015857600036600319011261015857602060405160128152f35b34610158576060366003190112610158576102f56105ee610798565b6106306105f96107ae565b6106076044358092856108d9565b6001600160a01b03831660009081526007602090815260408083203384529091529020546107c4565b9033906107d1565b34610158576000366003190112610158576020600154604051908152f35b34610158576040366003190112610158576102f5610672610798565b60243590336107d1565b346101585760003660031901126101585760006002548060011c90600181168015610745575b602083108114610403578285529081156103e757506001146106ee5750819003601f01601f191681019067ffffffffffffffff82118183101761037a576103768291826040528261074f565b905060026000527f405787fa12a823e0f2b7631cc41b3ba8828b3321ca811111fa75cd3aa3bb5ace6000905b82821061072f57506020915082010182610346565b600181602092548385880101520191019061071a565b91607f16916106a2565b91909160208152825180602083015260005b818110610782575060409293506000838284010152601f8019910116010190565b8060208092870101516040828601015201610761565b600435906001600160a01b038216820361015857565b602435906001600160a01b038216820361015857565b919082039182116102b957565b6001600160a01b0316908115610888576001600160a01b03169182156108385760207f8c5be1e5ebec7d5bd14f71427d1e84f3dd0314c0f7b2291e5b200ac8c7c3b925918360005260078252604060002085600052825280604060002055604051908152a3565b60405162461bcd60e51b815260206004820152602260248201527f45524332303a20617070726f766520746f20746865207a65726f206164647265604482015261737360f01b6064820152608490fd5b60405162461bcd60e51b8152602060048201526024808201527f45524332303a20617070726f76652066726f6d20746865207a65726f206164646044820152637265737360e01b6064820152608490fd5b6001600160a01b0316908115610a7a576001600160a01b0316918215610a295780156109d25781600052600860205260ff6040600020541615610993575b81600052600660205261092f816040600020546107c4565b8260005260066020526040600020558260005260066020526040600020548181018091116102b9577fddf252ad1be2c89b69c2b068fc378daa952ba7f163c4a11628f55a4df523b3ef916020918560005260068352604060002055604051908152a3565b6005548111156109175760405162461bcd60e51b815260206004820152600d60248201526c08af0c6cacac8e6409ac2f0a8f609b1b6044820152606490fd5b60405162461bcd60e51b815260206004820152602960248201527f5472616e7366657220616d6f756e74206d7573742062652067726561746572206044820152687468616e207a65726f60b81b6064820152608490fd5b60405162461bcd60e51b815260206004820152602360248201527f45524332303a207472616e7366657220746f20746865207a65726f206164647260448201526265737360e81b6064820152608490fd5b60405162461bcd60e51b815260206004820152602560248201527f45524332303a207472616e736665722066726f6d20746865207a65726f206164604482015264647265737360d81b6064820152608490fd5b6000546001600160a01b03163303610ae157565b63118cdaa760e01b6000523360045260246000fdfea26469706673582212200643c04ab660aeeeb3b46a368f73f02a55beed44ab289a2b51181b75b207672f64736f6c634300081c0033",
  "linkReferences": {},
  "deployedLinkReferences": {}
}