{
  "_format": "hh-sol-artifact-1",
  "contractName": "FPair",
  "sourceName": "contracts/fun/FPair.sol",
  "abi": [
    {
      "inputs": [
        {
          "internalType": "address",
          "name": "router_",
          "type": "address"
        },
        {
          "internalType": "address",
          "name": "token0",
          "type": "address"
        },
        {
          "internalType": "address",
          "name": "token1",
          "type": "address"
        }
      ],
      "stateMutability": "nonpayable",
      "type": "constructor"
    },
    {
      "inputs": [],
      "name": "ReentrancyGuardReentrantCall",
      "type": "error"
    },
    {
      "inputs": [
        {
          "internalType": "address",
          "name": "token",
          "type": "address"
        }
      ],
      "name": "SafeERC20FailedOperation",
      "type": "error"
    },
    {
      "anonymous": false,
      "inputs": [
        {
          "indexed": false,
          "internalType": "uint256",
          "name": "reserve0",
          "type": "uint256"
        },
        {
          "indexed": false,
          "internalType": "uint256",
          "name": "reserve1",
          "type": "uint256"
        }
      ],
      "name": "Mint",
      "type": "event"
    },
    {
      "anonymous": false,
      "inputs": [
        {
          "indexed": false,
          "internalType": "uint256",
          "name": "amount0In",
          "type": "uint256"
        },
        {
          "indexed": false,
          "internalType": "uint256",
          "name": "amount0Out",
          "type": "uint256"
        },
        {
          "indexed": false,
          "internalType": "uint256",
          "name": "amount1In",
          "type": "uint256"
        },
        {
          "indexed": false,
          "internalType": "uint256",
          "name": "amount1Out",
          "type": "uint256"
        }
      ],
      "name": "Swap",
      "type": "event"
    },
    {
      "inputs": [
        {
          "internalType": "address",
          "name": "_user",
          "type": "address"
        },
        {
          "internalType": "address",
          "name": "_token",
          "type": "address"
        },
        {
          "internalType": "uint256",
          "name": "amount",
          "type": "uint256"
        }
      ],
      "name": "approval",
      "outputs": [
        {
          "internalType": "bool",
          "name": "",
          "type": "bool"
        }
      ],
      "stateMutability": "nonpayable",
      "type": "function"
    },
    {
      "inputs": [],
      "name": "assetBalance",
      "outputs": [
        {
          "internalType": "uint256",
          "name": "",
          "type": "uint256"
        }
      ],
      "stateMutability": "view",
      "type": "function"
    },
    {
      "inputs": [],
      "name": "balance",
      "outputs": [
        {
          "internalType": "uint256",
          "name": "",
          "type": "uint256"
        }
      ],
      "stateMutability": "view",
      "type": "function"
    },
    {
      "inputs": [],
      "name": "getReserves",
      "outputs": [
        {
          "internalType": "uint256",
          "name": "",
          "type": "uint256"
        },
        {
          "internalType": "uint256",
          "name": "",
          "type": "uint256"
        }
      ],
      "stateMutability": "view",
      "type": "function"
    },
    {
      "inputs": [],
      "name": "kLast",
      "outputs": [
        {
          "internalType": "uint256",
          "name": "",
          "type": "uint256"
        }
      ],
      "stateMutability": "view",
      "type": "function"
    },
    {
      "inputs": [
        {
          "internalType": "uint256",
          "name": "reserve0",
          "type": "uint256"
        },
        {
          "internalType": "uint256",
          "name": "reserve1",
          "type": "uint256"
        }
      ],
      "name": "mint",
      "outputs": [
        {
          "internalType": "bool",
          "name": "",
          "type": "bool"
        }
      ],
      "stateMutability": "nonpayable",
      "type": "function"
    },
    {
      "inputs": [],
      "name": "priceALast",
      "outputs": [
        {
          "internalType": "uint256",
          "name": "",
          "type": "uint256"
        }
      ],
      "stateMutability": "view",
      "type": "function"
    },
    {
      "inputs": [],
      "name": "priceBLast",
      "outputs": [
        {
          "internalType": "uint256",
          "name": "",
          "type": "uint256"
        }
      ],
      "stateMutability": "view",
      "type": "function"
    },
    {
      "inputs": [],
      "name": "router",
      "outputs": [
        {
          "internalType": "address",
          "name": "",
          "type": "address"
        }
      ],
      "stateMutability": "view",
      "type": "function"
    },
    {
      "inputs": [
        {
          "internalType": "uint256",
          "name": "amount0In",
          "type": "uint256"
        },
        {
          "internalType": "uint256",
          "name": "amount0Out",
          "type": "uint256"
        },
        {
          "internalType": "uint256",
          "name": "amount1In",
          "type": "uint256"
        },
        {
          "internalType": "uint256",
          "name": "amount1Out",
          "type": "uint256"
        }
      ],
      "name": "swap",
      "outputs": [
        {
          "internalType": "bool",
          "name": "",
          "type": "bool"
        }
      ],
      "stateMutability": "nonpayable",
      "type": "function"
    },
    {
      "inputs": [],
      "name": "tokenA",
      "outputs": [
        {
          "internalType": "address",
          "name": "",
          "type": "address"
        }
      ],
      "stateMutability": "view",
      "type": "function"
    },
    {
      "inputs": [],
      "name": "tokenB",
      "outputs": [
        {
          "internalType": "address",
          "name": "",
          "type": "address"
        }
      ],
      "stateMutability": "view",
      "type": "function"
    },
    {
      "inputs": [
        {
          "internalType": "address",
          "name": "recipient",
          "type": "address"
        },
        {
          "internalType": "uint256",
          "name": "amount",
          "type": "uint256"
        }
      ],
      "name": "transferAsset",
      "outputs": [],
      "stateMutability": "nonpayable",
      "type": "function"
    },
    {
      "inputs": [
        {
          "internalType": "address",
          "name": "recipient",
          "type": "address"
        },
        {
          "internalType": "uint256",
          "name": "amount",
          "type": "uint256"
        }
      ],
      "name": "transferTo",
      "outputs": [],
      "stateMutability": "nonpayable",
      "type": "function"
    }
  ],
  "bytecode": "0x6080346100e457601f6109d138819003918201601f19168301916001600160401b038311848410176100e9578084926060946040528339810103126100e457610047816100ff565b61005f6040610058602085016100ff565b93016100ff565b60016000556001600160a01b039091169161007b831515610113565b6001600160a01b031690610090821515610113565b6001600160a01b0316916100a5831515610113565b60018060a01b0319600154161760015560018060a01b0319600254161760025560018060a01b0319600354161760035560405161087190816101608239f35b600080fd5b634e487b7160e01b600052604160045260246000fd5b51906001600160a01b03821682036100e457565b1561011a57565b60405162461bcd60e51b815260206004820152601f60248201527f5a65726f2061646472657373657320617265206e6f7420616c6c6f7765642e006044820152606490fdfe608080604052600436101561001357600080fd5b60003560e01c9081630902f1ac14610637575080630e06dfc9146106155780630fc63d10146105ec5780631b2ef1ca146104f25780632ccb1b30146104975780635673b02d146103c95780635c52a5f21461029f5780635c921eb9146102425780635c9d6938146102185780635f64b55b146101ef5780637464fc3d146101d1578063b69ef8a81461017c578063c66f2455146100e75763f887ea40146100b957600080fd5b346100e25760003660031901126100e2576001546040516001600160a01b039091168152602090f35b600080fd5b346100e25760003660031901126100e2576003546040516370a0823160e01b815230600482015290602090829060249082906001600160a01b03165afa80156101705760009061013d575b602090604051908152f35b506020813d602011610168575b816101576020938361071a565b810103126100e25760209051610132565b3d915061014a565b6040513d6000823e3d90fd5b346100e25760003660031901126100e2576002546040516370a0823160e01b815230600482015290602090829060249082906001600160a01b03165afa80156101705760009061013d57602090604051908152f35b346100e25760003660031901126100e2576020600654604051908152f35b346100e25760003660031901126100e2576003546040516001600160a01b039091168152602090f35b346100e25760003660031901126100e257602061023a60055460045490610671565b604051908152f35b346100e25760403660031901126100e25761029d61025e61065b565b61027360018060a01b03600154163314610691565b6102876001600160a01b038216151561073c565b60035460243591906001600160a01b03166107a2565b005b346100e25760603660031901126100e2576102b861065b565b6024356001600160a01b03811691908290036100e2576102e360018060a01b03600154163314610691565b6001600160a01b038116916102f983151561073c565b61030481151561073c565b60405163095ea7b360e01b60208083019182526001600160a01b039490941660248301526044803581840152825290929060009061034360648661071a565b84519082855af16000513d826103ad575b505015610367575b602060405160018152f35b6103a06103a5936040519063095ea7b360e01b60208301526024820152600060448201526044815261039a60648261071a565b826107e0565b6107e0565b80808061035c565b9091506103c15750803b15155b8480610354565b6001146103ba565b346100e25760803660031901126100e2577f298c349c742327269dc8de6ad66687767310c948ea309df826f5bd103e19d20760806004356024356044356064359161041f60018060a01b03600154163314610691565b6104348161042f86600454610788565b610795565b6104448461042f85600554610788565b60065491604051610454816106e8565b81815282602082015283604082015260604291015260045560055560065542600755604051938452602084015260408301526060820152a1602060405160018152f35b346100e25760403660031901126100e25761029d6104b361065b565b6104c860018060a01b03600154163314610691565b6104dc6001600160a01b038216151561073c565b60025460243591906001600160a01b03166107a2565b346100e25760403660031901126100e2576004356024359061051f60018060a01b03600154163314610691565b6007546105b657818102908082048314811517156105a0577fcc9c58b575eabd3f6a1ee653e91fcea3ff546867ffc3782a3bbca1f9b6dbb8df926040928351610567816106e8565b838152826020820152818582015260604291015282600455816005556006554260075582519182526020820152a1602060405160018152f35b634e487b7160e01b600052601160045260246000fd5b60405162461bcd60e51b815260206004820152600e60248201526d105b1c9958591e481b5a5b9d195960921b6044820152606490fd5b346100e25760003660031901126100e2576002546040516001600160a01b039091168152602090f35b346100e25760003660031901126100e257602061023a60045460055490610671565b346100e25760003660031901126100e2576040906004546005549082526020820152f35b600435906001600160a01b03821682036100e257565b811561067b570490565b634e487b7160e01b600052601260045260246000fd5b1561069857565b60405162461bcd60e51b815260206004820152602260248201527f4f6e6c7920726f757465722063616e2063616c6c20746869732066756e63746960448201526137b760f11b6064820152608490fd5b6080810190811067ffffffffffffffff82111761070457604052565b634e487b7160e01b600052604160045260246000fd5b90601f8019910116810190811067ffffffffffffffff82111761070457604052565b1561074357565b60405162461bcd60e51b815260206004820152601f60248201527f5a65726f2061646472657373657320617265206e6f7420616c6c6f7765642e006044820152606490fd5b919082018092116105a057565b919082039182116105a057565b60405163a9059cbb60e01b60208201526001600160a01b039290921660248301526044808301939093529181526107de916103a060648361071a565b565b906000602091828151910182855af115610170576000513d61083257506001600160a01b0381163b155b6108115750565b635274afe760e01b60009081526001600160a01b0391909116600452602490fd5b6001141561080a56fea2646970667358221220b80878bccfe3c94763c3f558c5b8e11a3ec7b49205ac6d7860cbc25cc346153064736f6c634300081c0033",
  "linkReferences": {},
  "deployedLinkReferences": {}
}