{
  "_format": "hh-sol-artifact-1",
  "contractName": "FRouter",
  "sourceName": "contracts/fun/FRouter.sol",
  "abi": [
    {
      "inputs": [],
      "stateMutability": "nonpayable",
      "type": "constructor"
    },
    {
      "inputs": [],
      "name": "AccessControlBadConfirmation",
      "type": "error"
    },
    {
      "inputs": [
        {
          "internalType": "address",
          "name": "account",
          "type": "address"
        },
        {
          "internalType": "bytes32",
          "name": "neededRole",
          "type": "bytes32"
        }
      ],
      "name": "AccessControlUnauthorizedAccount",
      "type": "error"
    },
    {
      "inputs": [],
      "name": "InvalidInitialization",
      "type": "error"
    },
    {
      "inputs": [],
      "name": "NotInitializing",
      "type": "error"
    },
    {
      "inputs": [],
      "name": "ReentrancyGuardReentrantCall",
      "type": "error"
    },
    {
      "inputs": [
        {
          "internalType": "address",
          "name": "token",
          "type": "address"
        }
      ],
      "name": "SafeERC20FailedOperation",
      "type": "error"
    },
    {
      "anonymous": false,
      "inputs": [
        {
          "indexed": false,
          "internalType": "uint64",
          "name": "version",
          "type": "uint64"
        }
      ],
      "name": "Initialized",
      "type": "event"
    },
    {
      "anonymous": false,
      "inputs": [
        {
          "indexed": true,
          "internalType": "bytes32",
          "name": "role",
          "type": "bytes32"
        },
        {
          "indexed": true,
          "internalType": "bytes32",
          "name": "previousAdminRole",
          "type": "bytes32"
        },
        {
          "indexed": true,
          "internalType": "bytes32",
          "name": "newAdminRole",
          "type": "bytes32"
        }
      ],
      "name": "RoleAdminChanged",
      "type": "event"
    },
    {
      "anonymous": false,
      "inputs": [
        {
          "indexed": true,
          "internalType": "bytes32",
          "name": "role",
          "type": "bytes32"
        },
        {
          "indexed": true,
          "internalType": "address",
          "name": "account",
          "type": "address"
        },
        {
          "indexed": true,
          "internalType": "address",
          "name": "sender",
          "type": "address"
        }
      ],
      "name": "RoleGranted",
      "type": "event"
    },
    {
      "anonymous": false,
      "inputs": [
        {
          "indexed": true,
          "internalType": "bytes32",
          "name": "role",
          "type": "bytes32"
        },
        {
          "indexed": true,
          "internalType": "address",
          "name": "account",
          "type": "address"
        },
        {
          "indexed": true,
          "internalType": "address",
          "name": "sender",
          "type": "address"
        }
      ],
      "name": "RoleRevoked",
      "type": "event"
    },
    {
      "inputs": [],
      "name": "ADMIN_ROLE",
      "outputs": [
        {
          "internalType": "bytes32",
          "name": "",
          "type": "bytes32"
        }
      ],
      "stateMutability": "view",
      "type": "function"
    },
    {
      "inputs": [],
      "name": "DEFAULT_ADMIN_ROLE",
      "outputs": [
        {
          "internalType": "bytes32",
          "name": "",
          "type": "bytes32"
        }
      ],
      "stateMutability": "view",
      "type": "function"
    },
    {
      "inputs": [],
      "name": "EXECUTOR_ROLE",
      "outputs": [
        {
          "internalType": "bytes32",
          "name": "",
          "type": "bytes32"
        }
      ],
      "stateMutability": "view",
      "type": "function"
    },
    {
      "inputs": [
        {
          "internalType": "address",
          "name": "token_",
          "type": "address"
        },
        {
          "internalType": "uint256",
          "name": "amountToken_",
          "type": "uint256"
        },
        {
          "internalType": "uint256",
          "name": "amountAsset_",
          "type": "uint256"
        }
      ],
      "name": "addInitialLiquidity",
      "outputs": [
        {
          "internalType": "uint256",
          "name": "",
          "type": "uint256"
        },
        {
          "internalType": "uint256",
          "name": "",
          "type": "uint256"
        }
      ],
      "stateMutability": "nonpayable",
      "type": "function"
    },
    {
      "inputs": [
        {
          "internalType": "address",
          "name": "pair",
          "type": "address"
        },
        {
          "internalType": "address",
          "name": "asset",
          "type": "address"
        },
        {
          "internalType": "address",
          "name": "spender",
          "type": "address"
        },
        {
          "internalType": "uint256",
          "name": "amount",
          "type": "uint256"
        }
      ],
      "name": "approval",
      "outputs": [],
      "stateMutability": "nonpayable",
      "type": "function"
    },
    {
      "inputs": [],
      "name": "assetToken",
      "outputs": [
        {
          "internalType": "address",
          "name": "",
          "type": "address"
        }
      ],
      "stateMutability": "view",
      "type": "function"
    },
    {
      "inputs": [
        {
          "internalType": "uint256",
          "name": "amountIn",
          "type": "uint256"
        },
        {
          "internalType": "address",
          "name": "tokenAddress",
          "type": "address"
        },
        {
          "internalType": "address",
          "name": "to",
          "type": "address"
        }
      ],
      "name": "buy",
      "outputs": [
        {
          "internalType": "uint256",
          "name": "",
          "type": "uint256"
        },
        {
          "internalType": "uint256",
          "name": "",
          "type": "uint256"
        }
      ],
      "stateMutability": "nonpayable",
      "type": "function"
    },
    {
      "inputs": [],
      "name": "factory",
      "outputs": [
        {
          "internalType": "contract FFactory",
          "name": "",
          "type": "address"
        }
      ],
      "stateMutability": "view",
      "type": "function"
    },
    {
      "inputs": [
        {
          "internalType": "address",
          "name": "token",
          "type": "address"
        },
        {
          "internalType": "address",
          "name": "assetToken_",
          "type": "address"
        },
        {
          "internalType": "uint256",
          "name": "amountIn",
          "type": "uint256"
        }
      ],
      "name": "getAmountsOut",
      "outputs": [
        {
          "internalType": "uint256",
          "name": "_amountOut",
          "type": "uint256"
        }
      ],
      "stateMutability": "view",
      "type": "function"
    },
    {
      "inputs": [
        {
          "internalType": "bytes32",
          "name": "role",
          "type": "bytes32"
        }
      ],
      "name": "getRoleAdmin",
      "outputs": [
        {
          "internalType": "bytes32",
          "name": "",
          "type": "bytes32"
        }
      ],
      "stateMutability": "view",
      "type": "function"
    },
    {
      "inputs": [
        {
          "internalType": "address",
          "name": "tokenAddress",
          "type": "address"
        }
      ],
      "name": "graduate",
      "outputs": [],
      "stateMutability": "nonpayable",
      "type": "function"
    },
    {
      "inputs": [
        {
          "internalType": "bytes32",
          "name": "role",
          "type": "bytes32"
        },
        {
          "internalType": "address",
          "name": "account",
          "type": "address"
        }
      ],
      "name": "grantRole",
      "outputs": [],
      "stateMutability": "nonpayable",
      "type": "function"
    },
    {
      "inputs": [
        {
          "internalType": "bytes32",
          "name": "role",
          "type": "bytes32"
        },
        {
          "internalType": "address",
          "name": "account",
          "type": "address"
        }
      ],
      "name": "hasRole",
      "outputs": [
        {
          "internalType": "bool",
          "name": "",
          "type": "bool"
        }
      ],
      "stateMutability": "view",
      "type": "function"
    },
    {
      "inputs": [
        {
          "internalType": "address",
          "name": "factory_",
          "type": "address"
        },
        {
          "internalType": "address",
          "name": "assetToken_",
          "type": "address"
        }
      ],
      "name": "initialize",
      "outputs": [],
      "stateMutability": "nonpayable",
      "type": "function"
    },
    {
      "inputs": [
        {
          "internalType": "bytes32",
          "name": "role",
          "type": "bytes32"
        },
        {
          "internalType": "address",
          "name": "callerConfirmation",
          "type": "address"
        }
      ],
      "name": "renounceRole",
      "outputs": [],
      "stateMutability": "nonpayable",
      "type": "function"
    },
    {
      "inputs": [
        {
          "internalType": "bytes32",
          "name": "role",
          "type": "bytes32"
        },
        {
          "internalType": "address",
          "name": "account",
          "type": "address"
        }
      ],
      "name": "revokeRole",
      "outputs": [],
      "stateMutability": "nonpayable",
      "type": "function"
    },
    {
      "inputs": [
        {
          "internalType": "uint256",
          "name": "amountIn",
          "type": "uint256"
        },
        {
          "internalType": "address",
          "name": "tokenAddress",
          "type": "address"
        },
        {
          "internalType": "address",
          "name": "to",
          "type": "address"
        }
      ],
      "name": "sell",
      "outputs": [
        {
          "internalType": "uint256",
          "name": "",
          "type": "uint256"
        },
        {
          "internalType": "uint256",
          "name": "",
          "type": "uint256"
        }
      ],
      "stateMutability": "nonpayable",
      "type": "function"
    },
    {
      "inputs": [
        {
          "internalType": "address",
          "name": "newManager",
          "type": "address"
        }
      ],
      "name": "setTaxManager",
      "outputs": [],
      "stateMutability": "nonpayable",
      "type": "function"
    },
    {
      "inputs": [
        {
          "internalType": "bytes4",
          "name": "interfaceId",
          "type": "bytes4"
        }
      ],
      "name": "supportsInterface",
      "outputs": [
        {
          "internalType": "bool",
          "name": "",
          "type": "bool"
        }
      ],
      "stateMutability": "view",
      "type": "function"
    },
    {
      "inputs": [],
      "name": "taxManager",
      "outputs": [
        {
          "internalType": "address",
          "name": "",
          "type": "address"
        }
      ],
      "stateMutability": "view",
      "type": "function"
    }
  ],
  "bytecode": "0x6080806040523460d2577ff0c57e16840df040f15088dc2f81fe391c3923bec73e23a9662efc9c229c6a005460ff8160401c1660c1576002600160401b03196001600160401b03821601605c575b6040516119f790816100d88239f35b6001600160401b0319166001600160401b039081177ff0c57e16840df040f15088dc2f81fe391c3923bec73e23a9662efc9c229c6a005581527fc7f505b2f371ae2175ee4913f4499e1f2633a7b5936321eed1cdaeb6115181d290602090a13880604d565b63f92ee8a960e01b60005260046000fd5b600080fdfe608080604052600436101561001357600080fd5b600090813560e01c90816301ffc9a7146112005750806307bd0265146111c5578063095e3913146111095780631083f761146110e0578063248a9ca3146110c15780632f2ff15d1461108f57806336568abe1461104a57806345608d0014611012578063485cc95514610e4b5780634d23773014610e225780636f08e177146109b057806375b238fc1461097557806391d148541461091c578063a217fddf14610900578063ab3c475a14610804578063ba37fd38146106ad578063c45a015514610686578063d547741f1461064b578063e753858a146102ab5763ff6d8d05146100fd57600080fd5b34610223576020366003190112610223578061017c602061011c611255565b6101246115a6565b61012c61185d565b6101406001600160a01b03821615156112dc565b835460015460405163e6a4390560e01b81526001600160a01b039384166004820152908316602482015293849290911690829081906044820190565b03915afa90811561022657829161027c575b5060405163c66f245560e01b8152906001600160a01b0316602082600481845afa918215610271578392610235575b50803b1561023157604051635c921eb960e01b8152336004820152602481019290925282908290604490829084905af180156102265761020e575b5060016000805160206119828339815191525580f35b8161021891611328565b6102235780386101f8565b80fd5b6040513d84823e3d90fd5b5050fd5b925090506020823d602011610269575b8161025260209383611328565b810103126102645782915190386101bd565b600080fd5b3d9150610245565b6040513d85823e3d90fd5b61029e915060203d6020116102a4575b6102968183611328565b810190611360565b3861018e565b503d61028c565b5034610223576102ba36611281565b916102c36115a6565b6102cb61185d565b6102df6001600160a01b03831615156112dc565b6102f36001600160a01b03841615156112dc565b801561060657835460015460405163e6a4390560e01b81526001600160a01b038581166004830152918216602482018190529095909487939192909116602087604481845afa9687156105045784976105e5575b50604051634f7041a560e01b8152602081600481855afa90811561054a5785916105ad575b50956020606461037e8860049a611569565b049260405198898092630e2ad37b60e41b82525afa95861561054a5788978697610572575b50826103c56103ec95936103bb88966103da956113c2565b9b8c968792611899565b600154889087906001600160a01b0316611899565b6001546001600160a01b0316906113cf565b936001600160a01b031690813b1561056e576040516302ccb1b360e41b81526001600160a01b0391909116600482015260248101859052828160448183865af1908115610271578391610555575b5050602090608460405180948193635673b02d60e01b83528160048401528860248401528960448401528160648401525af1801561054a5761050f575b506002546001600160a01b03908116911681146104b1575b6040838360016000805160206119828339815191525582519182526020820152f35b60408491600482518094819363951d833d60e01b83525af1801561050457604094501561048f576104f790843d86116104fd575b6104ef8183611328565b810190611589565b5061048f565b503d6104e5565b6040513d86823e3d90fd5b6020813d602011610542575b8161052860209383611328565b8101031261053e576105399061157c565b610477565b8480fd5b3d915061051b565b6040513d87823e3d90fd5b8161055f91611328565b61056a57813861043a565b5080fd5b8280fd5b6103da919750926103c56103ec95936103bb8361059e8a9860203d6020116102a4576102968183611328565b9b9550965050939550506103a3565b9450506020843d6020116105dd575b816105c960209383611328565b81010312610264579251879390602061036c565b3d91506105bc565b6105ff91975060203d6020116102a4576102968183611328565b9538610347565b60405162461bcd60e51b815260206004820152601f60248201527f616d6f756e74496e206d7573742062652067726561746572207468616e2030006044820152606490fd5b50346102235760403660031901126102235761068260043561066b61126b565b9061067d610678826112bb565b611618565b6117bd565b5080f35b5034610223578060031936011261022357546040516001600160a01b039091168152602090f35b5034610223576060366003190112610223576106c7611255565b6024359082610730604435926106db6115a6565b6001600160a01b038116906020906106f48315156112dc565b845460015460405163e6a4390560e01b81526001600160a01b039384166004820152908316602482015294859290911690829081906044820190565b03915afa8015610271578560209385926107e3575b508161075392933390611899565b604051630d9778e560e11b8152600481018690526024810185905295869160449183916001600160a01b03165af180156107d65761079c575b6040838382519182526020820152f35b6020843d6020116107ce575b816107b560209383611328565b8101031261022357506107c960409361157c565b61078c565b3d91506107a8565b50604051903d90823e3d90fd5b61075392506107fe90853d87116102a4576102968183611328565b91610745565b50346102235760803660031901126102235761081e611255565b61082661126b565b906044356001600160a01b0381169182820361053e5761089a9361085d60209461084e6115a6565b61085661185d565b15156112dc565b604051632e2952f960e11b81526001600160a01b039384166004820152921660248301526064803560448401529193849283918791839190820190565b03926001600160a01b03165af18015610226576108c7575060016000805160206119828339815191525580f35b6020813d6020116108f8575b816108e060209383611328565b8101031261056a576108f19061157c565b50386101f8565b3d91506108d3565b5034610223578060031936011261022357602090604051908152f35b503461022357604036600319011261022357604061093861126b565b916004358152600080516020611962833981519152602052209060018060a01b0316600052602052602060ff604060002054166040519015158152f35b503461022357806003193601126102235760206040517fa49807205ce4d355092ef5a8a18f56e8913cf4a201fbe287825b095693c217758152f35b5034610223576109bf36611281565b6109c761185d565b6109cf6115a6565b6001600160a01b03821691821515906109e7826112dc565b6109fb6001600160a01b03841615156112dc565b855460015460405163e6a4390560e01b81526001600160a01b03848116600483015291821660248201529160209183916044918391165afa908115610ccb578791610e03575b506001600160a01b03811692610a56906112dc565b865460015460405163e6a4390560e01b81526001600160a01b0394851660048201529084166024820181905293909160209183916044918391165afa908115610df8578891610dd9575b5060408051630240bc6b60e21b81526001600160a01b039290921692919081600481865afa928315610dce5789918a94610d8d575b5090602060049260405193848092637464fc3d60e01b82525afa8015610d8257899488938c92610d41575b508590610b339715600014610d305791610b21610b2792610b2d959461137f565b906113a2565b906113c2565b96611899565b845460405163cc1776d360e01b8152926001600160a01b039091169086602085600481865afa80156107d65786958291610cf7575b50610b77600496606492611569565b04926020610b8585896113c2565b9160405197888092630e2ad37b60e41b82525afa958615610226578296610cd6575b50843b1561056a57604051635c921eb960e01b81526001600160a01b0393909316600484015260248301528160448183875af18015610ccb57610cb5575b50908591813b1561056e57604051635c921eb960e01b81526001600160a01b03851660048201526024810191909152828160448183865af1908115610271578391610ca0575b5050602090608460405180948193635673b02d60e01b83528960048401528160248401528160448401528860648401525af1801561054a5761050f57506002546001600160a01b03908116911681146104b1576040838360016000805160206119828339815191525582519182526020820152f35b81610caa91611328565b61056a578138610c2b565b86610cc39197929397611328565b949038610be5565b6040513d89823e3d90fd5b610cf091965060203d6020116102a4576102968183611328565b9438610ba7565b9550506020853d602011610d28575b81610d1360209383611328565b81010312610223579351859490610b77610b68565b3d9150610d06565b91610b21610b2792610b2d9561137f565b95509250506020843d602011610d7a575b81610d5f60209383611328565b81010312610d765792518893879290919085610b00565b8980fd5b3d9150610d52565b6040513d8c823e3d90fd5b915092506040813d604011610dc6575b81610daa60409383611328565b81010312610dc2578051602091820151939091610ad5565b8880fd5b3d9150610d9d565b6040513d8b823e3d90fd5b610df2915060203d6020116102a4576102968183611328565b38610aa0565b6040513d8a823e3d90fd5b610e1c915060203d6020116102a4576102968183611328565b38610a41565b50346102235780600319360112610223576002546040516001600160a01b039091168152602090f35b503461022357604036600319011261022357610e65611255565b610e6d61126b565b6000805160206119a2833981519152549160ff8360401c16159267ffffffffffffffff81168015908161100a575b6001149081611000575b159081610ff7575b50610fe85767ffffffffffffffff1981166001176000805160206119a28339815191525583610fbb575b50610ee0611933565b610ee8611933565b600160008051602061198283398151915255610f02611933565b610f0b33611662565b506001600160a01b031690610f218215156112dc565b6001600160a01b031690610f368215156112dc565b6001600160601b0360a01b8454161783556001600160601b0360a01b6001541617600155610f615780f35b68ff0000000000000000196000805160206119a283398151915254166000805160206119a2833981519152557fc7f505b2f371ae2175ee4913f4499e1f2633a7b5936321eed1cdaeb6115181d2602060405160018152a180f35b68ffffffffffffffffff191668010000000000000001176000805160206119a28339815191525538610ed7565b63f92ee8a960e01b8552600485fd5b90501538610ead565b303b159150610ea5565b859150610e9b565b5034610223576060366003190112610223576020611042611031611255565b61103961126b565b604435916113cf565b604051908152f35b50346102235760403660031901126102235761106461126b565b336001600160a01b0382160361108057610682906004356117bd565b63334bd91960e11b8252600482fd5b5034610223576040366003190112610223576106826004356110af61126b565b906110bc610678826112bb565b611714565b50346102235760203660031901126102235760206110426004356112bb565b50346102235780600319360112610223576001546040516001600160a01b039091168152602090f35b503461022357602036600319011261022357611123611255565b7fa49807205ce4d355092ef5a8a18f56e8913cf4a201fbe287825b095693c2177582526000805160206119628339815191526020908152604080842033855290915282205460ff161561118e5760018060a01b03166001600160601b0360a01b600254161760025580f35b63e2517d3f60e01b8252336004527fa49807205ce4d355092ef5a8a18f56e8913cf4a201fbe287825b095693c21775602452604482fd5b503461022357806003193601126102235760206040517fd8aa0f3194971a2a116679f7c2090f6939c8d4e01a2a8d7e41d55e5351469e638152f35b90503461056a57602036600319011261056a5760043563ffffffff60e01b811680910361056e5760209250637965db0b60e01b8114908115611244575b5015158152f35b6301ffc9a760e01b1490503861123d565b600435906001600160a01b038216820361026457565b602435906001600160a01b038216820361026457565b606090600319011261026457600435906024356001600160a01b038116810361026457906044356001600160a01b03811681036102645790565b60005260008051602061196283398151915260205260016040600020015490565b156112e357565b60405162461bcd60e51b815260206004820152601f60248201527f5a65726f2061646472657373657320617265206e6f7420616c6c6f7765642e006044820152606490fd5b90601f8019910116810190811067ffffffffffffffff82111761134a57604052565b634e487b7160e01b600052604160045260246000fd5b9081602091031261026457516001600160a01b03811681036102645790565b9190820180921161138c57565b634e487b7160e01b600052601160045260246000fd5b81156113ac570490565b634e487b7160e01b600052601260045260246000fd5b9190820391821161138c57565b9092916113e66001600160a01b03831615156112dc565b60005460015460405163e6a4390560e01b81526001600160a01b0394851660048201529084166024820181905293909160209183916044918391165afa9081156114fc5760009161154a575b5060408051630240bc6b60e21b81526001600160a01b03929092169591939084600481895afa9182156114fc576000948593611508575b506020600495969760405196878092637464fc3d60e01b82525afa9485156114fc576000956114c8575b506001600160a01b0316036114b75791610b21610b27926114b4959461137f565b90565b91610b21610b27926114b49561137f565b90946020823d6020116114f4575b816114e360209383611328565b810103126102235750519338611493565b3d91506114d6565b6040513d6000823e3d90fd5b949692506040853d604011611542575b8161152560409383611328565b8101031261153e57845160209586015193975094611469565b8680fd5b3d9150611518565b611563915060203d6020116102a4576102968183611328565b38611432565b8181029291811591840414171561138c57565b5190811515820361026457565b91908260409103126102645760206115a08361157c565b92015190565b3360009081527f52fce5e8a5d0d9e8d1ea29f4525e512e9c27bf92cae50374d497f918ab48f382602052604090205460ff16156115df57565b63e2517d3f60e01b600052336004527fd8aa0f3194971a2a116679f7c2090f6939c8d4e01a2a8d7e41d55e5351469e6360245260446000fd5b60008181526000805160206119628339815191526020908152604080832033845290915290205460ff161561164a5750565b63e2517d3f60e01b6000523360045260245260446000fd5b6001600160a01b03811660009081527fb7db2dd08fcb62d0c9e08c51941cae53c267786a0b75803fb7960902fc8ef97d602052604090205460ff1661170e576001600160a01b031660008181527fb7db2dd08fcb62d0c9e08c51941cae53c267786a0b75803fb7960902fc8ef97d60205260408120805460ff191660011790553391907f2f8788117e7eff1d82e926ec794901d17c78024a50270940304540a733656f0d8180a4600190565b50600090565b6000818152600080516020611962833981519152602090815260408083206001600160a01b038616845290915290205460ff166117b6576000818152600080516020611962833981519152602090815260408083206001600160a01b0395909516808452949091528120805460ff19166001179055339291907f2f8788117e7eff1d82e926ec794901d17c78024a50270940304540a733656f0d9080a4600190565b5050600090565b6000818152600080516020611962833981519152602090815260408083206001600160a01b038616845290915290205460ff16156117b6576000818152600080516020611962833981519152602090815260408083206001600160a01b0395909516808452949091528120805460ff19169055339291907ff6391f5c32d9c69d2a47ea670b442974b53935d1edc7fd64eb21e047a839171b9080a4600190565b6002600080516020611982833981519152541461188857600260008051602061198283398151915255565b633ee5aeb560e01b60005260046000fd5b6040516323b872dd60e01b60208083019182526001600160a01b03948516602484015294909316604482015260648082019590955293845292600091906118e1608482611328565b519082855af1156114fc576000513d61192a57506001600160a01b0381163b155b6119095750565b635274afe760e01b60009081526001600160a01b0391909116600452602490fd5b60011415611902565b60ff6000805160206119a28339815191525460401c161561195057565b631afcd79f60e31b60005260046000fdfe02dd7bc7dec4dceedda775e58dd541e08a116c6c53815c0bd028192f7b6268009b779b17422d0df92223018b32b4d1fa46e071723d6817e2486d003becc55f00f0c57e16840df040f15088dc2f81fe391c3923bec73e23a9662efc9c229c6a00a2646970667358221220ee3d30034cb7d6596713ab779467e7f6f3c724529a77928f93d55d9df4d589e764736f6c634300081c0033",
  "linkReferences": {},
  "deployedLinkReferences": {}
}